{
  "contractName": "AlkemiNetwork",
  "abi": [
    {
      "constant": true,
      "inputs": [
        {
          "name": "",
          "type": "address"
        },
        {
          "name": "",
          "type": "uint256"
        }
      ],
      "name": "providerReserves",
      "outputs": [
        {
          "name": "",
          "type": "address"
        }
      ],
      "payable": false,
      "stateMutability": "view",
      "type": "function"
    },
    {
      "constant": true,
      "inputs": [],
      "name": "owner",
      "outputs": [
        {
          "name": "",
          "type": "address"
        }
      ],
      "payable": false,
      "stateMutability": "view",
      "type": "function"
    },
    {
      "constant": true,
      "inputs": [
        {
          "name": "",
          "type": "address"
        },
        {
          "name": "",
          "type": "uint256"
        }
      ],
      "name": "tokenReserves",
      "outputs": [
        {
          "name": "",
          "type": "address"
        }
      ],
      "payable": false,
      "stateMutability": "view",
      "type": "function"
    },
    {
      "constant": true,
      "inputs": [],
      "name": "currentSettlementId",
      "outputs": [
        {
          "name": "",
          "type": "uint256"
        }
      ],
      "payable": false,
      "stateMutability": "view",
      "type": "function"
    },
    {
      "constant": true,
      "inputs": [],
      "name": "alkemiOracle",
      "outputs": [
        {
          "name": "",
          "type": "address"
        }
      ],
      "payable": false,
      "stateMutability": "view",
      "type": "function"
    },
    {
      "inputs": [],
      "payable": false,
      "stateMutability": "nonpayable",
      "type": "constructor"
    },
    {
      "anonymous": false,
      "inputs": [
        {
          "indexed": true,
          "name": "reserve",
          "type": "address"
        },
        {
          "indexed": true,
          "name": "liquidityProvider",
          "type": "address"
        },
        {
          "indexed": true,
          "name": "beneficiary",
          "type": "address"
        },
        {
          "indexed": false,
          "name": "lockingPeriod",
          "type": "uint256"
        },
        {
          "indexed": false,
          "name": "lockingPrice",
          "type": "uint256"
        },
        {
          "indexed": false,
          "name": "lockingPricePosition",
          "type": "uint8"
        }
      ],
      "name": "ReserveCreate",
      "type": "event"
    },
    {
      "constant": true,
      "inputs": [
        {
          "name": "_liquidityProvider",
          "type": "address"
        }
      ],
      "name": "providerLiquidityReserves",
      "outputs": [
        {
          "name": "",
          "type": "address[]"
        }
      ],
      "payable": false,
      "stateMutability": "view",
      "type": "function"
    },
    {
      "constant": true,
      "inputs": [
        {
          "name": "_liquidityProvider",
          "type": "address"
        },
        {
          "name": "_asset",
          "type": "address"
        }
      ],
      "name": "providerTokenReserves",
      "outputs": [
        {
          "name": "",
          "type": "address[]"
        }
      ],
      "payable": false,
      "stateMutability": "view",
      "type": "function"
    },
    {
      "constant": true,
      "inputs": [
        {
          "name": "_asset",
          "type": "address"
        }
      ],
      "name": "tokenLiquidityReserves",
      "outputs": [
        {
          "name": "",
          "type": "address[]"
        }
      ],
      "payable": false,
      "stateMutability": "view",
      "type": "function"
    },
    {
      "constant": false,
      "inputs": [
        {
          "name": "_linkToken",
          "type": "address"
        },
        {
          "name": "_beneficiary",
          "type": "address"
        },
        {
          "name": "_asset",
          "type": "address"
        },
        {
          "name": "_lockingPeriod",
          "type": "uint256"
        },
        {
          "name": "_lockingPrice",
          "type": "uint256"
        },
        {
          "name": "_lockingPricePosition",
          "type": "uint8"
        }
      ],
      "name": "createLiquidityReserve",
      "outputs": [
        {
          "name": "",
          "type": "address"
        }
      ],
      "payable": false,
      "stateMutability": "nonpayable",
      "type": "function"
    },
    {
      "constant": false,
      "inputs": [
        {
          "name": "_owner",
          "type": "address"
        }
      ],
      "name": "setNewOwner",
      "outputs": [],
      "payable": false,
      "stateMutability": "nonpayable",
      "type": "function"
    },
    {
      "constant": false,
      "inputs": [
        {
          "name": "_oracle",
          "type": "address"
        }
      ],
      "name": "setAlkemiOracle",
      "outputs": [],
      "payable": false,
      "stateMutability": "nonpayable",
      "type": "function"
    }
  ],
  "bytecode": "0x608060405234801561001057600080fd5b506100203361002a60201b60201c565b60016004556100c4565b6001600160a01b0381161580159061004b57506001600160a01b0381163014155b15156100a2576040517f08c379a00000000000000000000000000000000000000000000000000000000081526004018080602001828103825260248152602001806137836024913960400191505060405180910390fd5b600080546001600160a01b0319166001600160a01b0392909216919091179055565b6136b0806100d36000396000f3fe60806040523480156200001157600080fd5b5060043610620000b85760003560e01c80638da5cb5b116200007b5780638da5cb5b1462000226578063be27f7a51462000230578063d27c96251462000261578063ddfeb9751462000290578063e90038bc14620002ac578063f5a1f5b414620002b657620000b8565b806308fc876e14620000bd5780632a1250bc14620001385780635ac34de914620001835780637104675f14620001ac57806375a83f5514620001fb575b600080fd5b620000e660048036036020811015620000d557600080fd5b50356001600160a01b0316620002df565b60408051602080825283518183015283519192839290830191858101910280838360005b83811015620001245781810151838201526020016200010a565b505050509050019250505060405180910390f35b62000167600480360360408110156200015057600080fd5b506001600160a01b03813516906020013562000482565b604080516001600160a01b039092168252519081900360200190f35b620000e6600480360360208110156200019b57600080fd5b50356001600160a01b0316620004ba565b62000167600480360360c0811015620001c457600080fd5b5080356001600160a01b039081169160208101358216916040820135169060608101359060808101359060a0013560ff1662000653565b62000224600480360360208110156200021357600080fd5b50356001600160a01b03166200071f565b005b620001676200077b565b620000e6600480360360408110156200024857600080fd5b506001600160a01b03813581169160200135166200078a565b62000167600480360360408110156200027957600080fd5b506001600160a01b038135169060200135620009cb565b6200029a620009e7565b60408051918252519081900360200190f35b62000167620009ed565b6200022460048036036020811015620002ce57600080fd5b50356001600160a01b0316620009fc565b60608060026000846001600160a01b03166001600160a01b031681526020019081526020016000208054806020026020016040519081016040528092919081815260200182805480156200035d57602002820191906000526020600020905b81546001600160a01b031681526001909101906020018083116200033e575b505050505090506060815160405190808252806020026020018201604052801562000392578160200160208202803883390190505b5090506000805b835181101562000478578381815181101515620003b257fe5b906020019060200201516001600160a01b03166322f3e2d46040518163ffffffff1660e01b815260040160206040518083038186803b158015620003f557600080fd5b505afa1580156200040a573d6000803e3d6000fd5b505050506040513d60208110156200042157600080fd5b5051156200046f5783818151811015156200043857fe5b9060200190602002015183838151811015156200045157fe5b6001600160a01b039092166020928302909101909101526001909101905b60010162000399565b5090949350505050565b6002602052816000526040600020818154811015156200049e57fe5b6000918252602090912001546001600160a01b03169150829050565b60608060036000846001600160a01b03166001600160a01b031681526020019081526020016000208054806020026020016040519081016040528092919081815260200182805480156200053857602002820191906000526020600020905b81546001600160a01b0316815260019091019060200180831162000519575b50505050509050606081516040519080825280602002602001820160405280156200056d578160200160208202803883390190505b5090506000805b8351811015620004785783818151811015156200058d57fe5b906020019060200201516001600160a01b03166322f3e2d46040518163ffffffff1660e01b815260040160206040518083038186803b158015620005d057600080fd5b505afa158015620005e5573d6000803e3d6000fd5b505050506040513d6020811015620005fc57600080fd5b5051156200064a5783818151811015156200061357fe5b9060200190602002015183828151811015156200062c57fe5b6001600160a01b039092166020928302909101909101526001909101905b60010162000574565b600080620006688833308a8a8a8a8a62000a55565b3360008181526002602090815260408083208054600181810183559185528385200180546001600160a01b038089166001600160a01b031992831681179093558e8116875260038652848720805494850181558752958590209092018054909216811790915581518b81529283018a905260ff8916838301529051949550918b16937f9f6a04c0e87f0c12bc55f850e50bee3c2c1dc90bcf5fb3d4500f8a9671c6e41f9181900360600190a4509695505050505050565b6000546001600160a01b031633146200076d57604051600160e51b62461bcd028152600401808060200182810382526034815260200180620036086034913960400191505060405180910390fd5b620007788162000ae6565b50565b6000546001600160a01b031681565b60608060026000856001600160a01b03166001600160a01b031681526020019081526020016000208054806020026020016040519081016040528092919081815260200182805480156200080857602002820191906000526020600020905b81546001600160a01b03168152600190910190602001808311620007e9575b50505050509050606081516040519080825280602002602001820160405280156200083d578160200160208202803883390190505b5090506000805b8351811015620009c05783818151811015156200085d57fe5b906020019060200201516001600160a01b03166322f3e2d46040518163ffffffff1660e01b815260040160206040518083038186803b158015620008a057600080fd5b505afa158015620008b5573d6000803e3d6000fd5b505050506040513d6020811015620008cc57600080fd5b505180156200096b5750856001600160a01b03168482815181101515620008ef57fe5b906020019060200201516001600160a01b03166338d52e0f6040518163ffffffff1660e01b815260040160206040518083038186803b1580156200093257600080fd5b505afa15801562000947573d6000803e3d6000fd5b505050506040513d60208110156200095e57600080fd5b50516001600160a01b0316145b15620009b75783818151811015156200098057fe5b9060200190602002015183838151811015156200099957fe5b6001600160a01b039092166020928302909101909101526001909101905b60010162000844565b509095945050505050565b6003602052816000526040600020818154811015156200049e57fe5b60045481565b6001546001600160a01b031681565b6000546001600160a01b0316331462000a4a57604051600160e51b62461bcd028152600401808060200182810382526034815260200180620036086034913960400191505060405180910390fd5b620007788162000b54565b6000888888888888888860405162000a6d9062000bda565b6001600160a01b0398891681529688166020880152948716604080880191909152938716606087015291909516608085015260a084019490945260c083019390935260ff1660e082015290519081900361010001906000f08015801562000ad8573d6000803e3d6000fd5b509998505050505050505050565b6001600160a01b038116151562000b3257604051600160e51b62461bcd028152600401808060200182810382526025815260200180620036606025913960400191505060405180910390fd5b600180546001600160a01b0319166001600160a01b0392909216919091179055565b6001600160a01b0381161580159062000b7657506001600160a01b0381163014155b151562000bb857604051600160e51b62461bcd0281526004018080602001828103825260248152602001806200363c6024913960400191505060405180910390fd5b600080546001600160a01b0319166001600160a01b0392909216919091179055565b612a1f8062000be98339019056fe608060405260016004556012805461ff0019166101001790553480156200002557600080fd5b506040516101008062002a1f83398101806040526101008110156200004957600080fd5b508051602082015160408301516060840151608085015160a086015160c087015160e09097015195969495939492939192909185876001600160a01b0382161515620000e1576040517f08c379a0000000000000000000000000000000000000000000000000000000008152600401808060200182810382526041815260200180620029b76041913960600191505060405180910390fd5b6001600160a01b038116151562000144576040517f08c379a00000000000000000000000000000000000000000000000000000000081526004018080602001828103825260398152602001806200297e6039913960400191505060405180910390fd5b600680546001600160a01b038085166001600160a01b03199283161790925560078054848416921691909117908190556040519116906000907fdd02a698b84b4fb5f964b0fff14610c98b37374dca4ecccc6f323e825b11d38f908290a35050428311620001fe576040517f08c379a00000000000000000000000000000000000000000000000000000000081526004018080602001828103825260328152602001806200294c6032913960400191505060405180910390fd5b81151562000258576040517f08c379a0000000000000000000000000000000000000000000000000000000008152600401808060200182810382526027815260200180620029f86027913960400191505060405180910390fd5b6001600160a01b03881615156200027f57620002796200033260201b60201c565b62000290565b6200029088620003c160201b60201c565b600880546001600160a01b038087166001600160a01b0319928316179092556009805492881692909116919091179055600a839055600b829055600060ff82166001811115620002dc57fe5b90506000816001811115620002ed57fe5b1415620002ff576012805460ff191690555b60018160018111156200030e57fe5b141562000323576012805460ff191660011790555b505050505050505050620003e3565b620003bf73c89bd4e1632d3a43cb03aaad5262cbe4038bc5716001600160a01b03166338cc48316040518163ffffffff1660e01b815260040160206040518083038186803b1580156200038457600080fd5b505afa15801562000399573d6000803e3d6000fd5b505050506040513d6020811015620003b057600080fd5b5051620003c1602090811b901c565b565b600280546001600160a01b0319166001600160a01b0392909216919091179055565b61255980620003f36000396000f3fe6080604052600436106101cd5760003560e01c806376fcfa6d116100f7578063b6b55f2511610095578063e3d670d711610064578063e3d670d7146106fa578063e65a01171461072d578063ed74770f14610757578063eef49ee31461076c576101cd565b8063b6b55f251461057b578063b745b94914610267578063d6f1926214610598578063d7ecdb1b146105ad576101cd565b80639d1e4a04116100d15780639d1e4a0414610509578063a04e9e7c1461051e578063a4efc58014610551578063ad7a672f14610566576101cd565b806376fcfa6d146104ca5780637b70209f146104df5780638dc654a2146104f4576101cd565b80633ff7f9131161016f578063550066d51161013e578063550066d514610427578063565974d31461044e5780635b8bec55146104a0578063668aa824146104b5576101cd565b80633ff7f913146102d15780634357855e146102fb57806348a0c8dd1461032b57806353eda08814610340576101cd565b806334a48b7a116101ab57806334a48b7a1461026757806337263e131461027c57806338af3eed146102a757806338d52e0f146102bc576101cd565b80631498207e146101d2578063165d35e11461020d57806322f3e2d41461023e575b600080fd5b3480156101de57600080fd5b5061020b600480360360408110156101f557600080fd5b506001600160a01b038135169060200135610781565b005b34801561021957600080fd5b50610222610927565b604080516001600160a01b039092168252519081900360200190f35b34801561024a57600080fd5b50610253610936565b604080519115158252519081900360200190f35b34801561027357600080fd5b50610253610953565b34801561028857600080fd5b50610291610964565b6040805160ff9092168252519081900360200190f35b3480156102b357600080fd5b5061022261096d565b3480156102c857600080fd5b5061022261097c565b3480156102dd57600080fd5b5061020b600480360360208110156102f457600080fd5b503561098b565b34801561030757600080fd5b5061020b6004803603604081101561031e57600080fd5b5080359060200135610a1b565b34801561033757600080fd5b50610253610bb3565b34801561034c57600080fd5b5061020b600480360360c081101561036357600080fd5b8135916001600160a01b036020820135169160408201359190810190608081016060820135600160201b81111561039957600080fd5b8201836020820111156103ab57600080fd5b803590602001918460018302840111600160201b831117156103cc57600080fd5b919390929091602081019035600160201b8111156103e957600080fd5b8201836020820111156103fb57600080fd5b803590602001918460018302840111600160201b8311171561041c57600080fd5b919350915035610bc1565b34801561043357600080fd5b5061043c610cb8565b60408051918252519081900360200190f35b34801561045a57600080fd5b50610463610cbe565b604080516001600160a01b0390971687526020870195909552858501939093526060850191909152608084015260a0830152519081900360c00190f35b3480156104ac57600080fd5b50610222610ce4565b3480156104c157600080fd5b5061043c610cf3565b3480156104d657600080fd5b5061043c610cf9565b3480156104eb57600080fd5b50610253610cff565b34801561050057600080fd5b5061020b610d0f565b34801561051557600080fd5b50610253610eb4565b34801561052a57600080fd5b5061020b6004803603602081101561054157600080fd5b50356001600160a01b0316610ec5565b34801561055d57600080fd5b5061043c610f16565b34801561057257600080fd5b5061043c610f1c565b61020b6004803603602081101561059157600080fd5b5035610f22565b3480156105a457600080fd5b5061043c61100c565b3480156105b957600080fd5b5061020b600480360360a08110156105d057600080fd5b6001600160a01b0382351691602081013591810190606081016040820135600160201b8111156105ff57600080fd5b82018360208201111561061157600080fd5b803590602001918460018302840111600160201b8311171561063257600080fd5b91908080601f0160208091040260200160405190810160405280939291908181526020018383808284376000920191909152509295949360208101935035915050600160201b81111561068457600080fd5b82018360208201111561069657600080fd5b803590602001918460018302840111600160201b831117156106b757600080fd5b91908080601f0160208091040260200160405190810160405280939291908181526020018383808284376000920191909152509295505091359250611012915050565b34801561070657600080fd5b5061043c6004803603602081101561071d57600080fd5b50356001600160a01b031661127c565b34801561073957600080fd5b5061020b6004803603602081101561075057600080fd5b5035611313565b34801561076357600080fd5b5061022261137d565b34801561077857600080fd5b5061043c61138c565b610789610eb4565b15156107c957604051600160e51b62461bcd0281526004018080602001828103825260408152602001806123636040913960400191505060405180910390fd5b600a54421061080c57604051600160e51b62461bcd0281526004018080602001828103825260248152602001806124826024913960400191505060405180910390fd5b6008546001600160a01b0316151561089d57303181111561086157604051600160e51b62461bcd0281526004018080602001828103825260268152602001806123d96026913960400191505060405180910390fd5b6040516001600160a01b0383169082156108fc029083906000818181858888f19350505050158015610897573d6000803e3d6000fd5b50610923565b60085460408051600160e01b63a9059cbb0281526001600160a01b038581166004830152602482018590529151919092169163a9059cbb9160448083019260209291908290030181600087803b1580156108f657600080fd5b505af115801561090a573d6000803e3d6000fd5b505050506040513d602081101561092057600080fd5b50505b5050565b6000610931611392565b905090565b601254600090610100900460ff1680610931575050600c54151590565b6007546001600160a01b0316331490565b60125460ff1681565b6009546001600160a01b031681565b6008546001600160a01b031681565b610993610953565b15156109d357604051600160e51b62461bcd0281526004018080602001828103825260368152602001806123a36036913960400191505060405180910390fd5b600a548111610a1657604051600160e51b62461bcd02815260040180806020018281038252602c815260200180612423602c913960400191505060405180910390fd5b600a55565b60008281526005602052604090205482906001600160a01b03163314610a7557604051600160e51b62461bcd0281526004018080602001828103825260288152602001806124a66028913960400191505060405180910390fd5b60008181526005602052604080822080546001600160a01b03191690555182917f7cc135e0cebb02c3480ae5d74d377283180a2601f8f644edf7987b009316c63a91a2600f8290554260105560125460ff161515610b4957600b54600f5411610b4457600b54600f5460125460408051938452602084019290925260ff1682820152517f049bfbfde0309d523311e3ae656abf430a3a28b5af57ba8771329b74fa4f97339181900360600190a1610b44610b2d610ce4565b6008546011546001600160a01b03909116906113a1565b610ba9565b600b54600f5410610ba957600b54600f5460125460408051938452602084019290925260ff1682820152517f049bfbfde0309d523311e3ae656abf430a3a28b5af57ba8771329b74fa4f97339181900360600190a1610ba9610b2d610ce4565b5050600060115550565b601254610100900460ff1681565b610bc9610953565b1515610c0957604051600160e51b62461bcd0281526004018080602001828103825260368152602001806123a36036913960400191505060405180910390fd5b600a54421115610c3057600854610c2b9033906001600160a01b03168a6113a1565b610cae565b87601181905550610cae878787878080601f01602080910402602001604051908101604052809392919081815260200183838082843760009201919091525050604080516020601f8b018190048102820181019092528981529250899150889081908401838280828437600092019190915250889250611012915050565b5050505050505050565b600a5481565b600854600a54600b54600c54600d54600e546001600160a01b0390951694909192939495565b6007546001600160a01b031690565b600f5481565b600b5481565b6009546001600160a01b03161590565b610d17610953565b1515610d5757604051600160e51b62461bcd0281526004018080602001828103825260368152602001806123a36036913960400191505060405180910390fd5b6000610d61611392565b60408051600160e01b6370a0823102815230600482015290519192506001600160a01b0383169163a9059cbb91339184916370a082319160248083019260209291908290030181600087803b158015610db957600080fd5b505af1158015610dcd573d6000803e3d6000fd5b505050506040513d6020811015610de357600080fd5b50516040805163ffffffff851660e01b81526001600160a01b03909316600484015260248301919091525160448083019260209291908290030181600087803b158015610e2f57600080fd5b505af1158015610e43573d6000803e3d6000fd5b505050506040513d6020811015610e5957600080fd5b50511515610eb15760408051600160e51b62461bcd02815260206004820152601260248201527f556e61626c6520746f207472616e736665720000000000000000000000000000604482015290519081900360640190fd5b50565b6006546001600160a01b0316331490565b610ecd610953565b1515610f0d57604051600160e51b62461bcd02815260040180806020018281038252603b81526020018061227b603b913960400191505060405180910390fd5b610eb181611514565b60105481565b600c5481565b610f2a610953565b1515610f6a57604051600160e51b62461bcd0281526004018080602001828103825260368152602001806123a36036913960400191505060405180910390fd5b801515610fab57604051600160e51b62461bcd0281526004018080602001828103825260368152602001806124f86036913960400191505060405180910390fd5b601254610100900460ff161515610ff657604051600160e51b62461bcd02815260040180806020018281038252603381526020018061244f6033913960400191505060405180910390fd5b600854610eb1906001600160a01b0316826115ba565b600e5481565b333014806110235750611023610953565b151561106357604051600160e51b62461bcd02815260040180806020018281038252603a8152602001806122dc603a913960400191505060405180910390fd5b61106b61222b565b6110808530600160e11b6321abc2af026116d0565b6040805180820190915260038152600160e81b6273796d0260208201529091506110b29082908663ffffffff6116fb16565b6040805180820190915260078152600160ca1b6618dbdb9d995c9d0260208201526110e59082908563ffffffff6116fb16565b60408051600580825260c08201909252606091816020015b60608152602001906001900390816110fd579050509050604051806040016040528060048152602001600160e01b63646174610281525081600081518110151561114357fe5b60209081029091010152805185908290600190811061115e57fe5b90602001906020020181905250604051806040016040528060058152602001600160d81b6471756f74650281525081600281518110151561119b57fe5b6020908102909101015280518490829060039081106111b657fe5b90602001906020020181905250604051806040016040528060058152602001600160d81b647072696365028152508160048151811015156111f357fe5b90602001906020020181905250611238604051806040016040528060088152602001600160c31b670c6dee0f2a0c2e8d02815250828461172a9092919063ffffffff16565b6040805180820190915260058152600160d81b6474696d6573026020820152611271908390670de0b6b3a764000063ffffffff61179a16565b610cae8783856117c4565b60006001600160a01b03821615156112965750303161130e565b60408051600160e01b6370a0823102815230600482015290516001600160a01b038416916370a08231916024808301926020929190829003018186803b1580156112df57600080fd5b505afa1580156112f3573d6000803e3d6000fd5b505050506040513d602081101561130957600080fd5b505190505b919050565b61131b610eb4565b151561135b57604051600160e51b62461bcd0281526004018080602001828103825260408152602001806123636040913960400191505060405180910390fd5b611367600e54826119a0565b600e55600c5461137790826119a0565b600c5550565b6006546001600160a01b031690565b600d5481565b6002546001600160a01b031690565b6001600160a01b03821615156114305730318111156113f457604051600160e51b62461bcd0281526004018080602001828103825260268152602001806123d96026913960400191505060405180910390fd5b6040516001600160a01b0384169082156108fc029083906000818181858888f1935050505015801561142a573d6000803e3d6000fd5b506114bd565b816001600160a01b031663a9059cbb84836040518363ffffffff1660e01b815260040180836001600160a01b03166001600160a01b0316815260200182815260200192505050602060405180830381600087803b15801561149057600080fd5b505af11580156114a4573d6000803e3d6000fd5b505050506040513d60208110156114ba57600080fd5b50505b6114c9600c5482611a06565b600c556040805182815290516001600160a01b0380861692908516917f6a59b575a9d99916495f3a7e121eb0ecd2ae0f0ae7fb5a76cb3e35d583f0ed589181900360200190a3505050565b6001600160a01b038116151561155e57604051600160e51b62461bcd0281526004018080602001828103825260268152602001806122b66026913960400191505060405180910390fd5b6007546040516001600160a01b038084169216907fdd02a698b84b4fb5f964b0fff14610c98b37374dca4ecccc6f323e825b11d38f90600090a3600780546001600160a01b0319166001600160a01b0392909216919091179055565b8015156115fb57604051600160e51b62461bcd02815260040180806020018281038252602a815260200180612316602a913960400191505060405180910390fd5b6001600160a01b03821615156116515734811461164c57604051600160e51b62461bcd0281526004018080602001828103825260248152602001806123ff6024913960400191505060405180910390fd5b61166c565b61166c6001600160a01b03831633308463ffffffff611a4816565b6012805461ff0019169055600d5461168490826119a0565b600d819055600c5560408051828152905133916001600160a01b038516917fed6213b478c3e842d868cfacb97c58fc59b0c882ce4794854dfd1edc60c6f6e99181900360200190a35050565b6116d861222b565b6116e061222b565b6116f28186868663ffffffff611aa516565b95945050505050565b6080830151611710908363ffffffff611ae216565b6080830151611725908263ffffffff611ae216565b505050565b608083015161173f908363ffffffff611ae216565b61174c8360800151611aff565b60005b815181101561178c57611784828281518110151561176957fe5b6020908102909101015160808601519063ffffffff611ae216565b60010161174f565b506117258360800151611b0a565b60808301516117af908363ffffffff611ae216565b6080830151611725908263ffffffff611b1516565b6004546040805130606090811b60208084019190915260348084018690528451808503909101815260549093018452825192810192909220908601939093526000838152600590915281812080546001600160a01b0319166001600160a01b038816179055905182917fb5e6e01e79f91267dc17b4e6314d5d4d03593d2ceee0fbb452b750bd70ea5af991a26002546001600160a01b0316634000aea0858461186c87611b3e565b6040518463ffffffff1660e01b815260040180846001600160a01b03166001600160a01b0316815260200183815260200180602001828103825283818151815260200191508051906020019080838360005b838110156118d65781810151838201526020016118be565b50505050905090810190601f1680156119035780820380516001836020036101000a031916815260200191505b50945050505050602060405180830381600087803b15801561192457600080fd5b505af1158015611938573d6000803e3d6000fd5b505050506040513d602081101561194e57600080fd5b5051151561199057604051600160e51b62461bcd0281526004018080602001828103825260238152602001806123406023913960400191505060405180910390fd5b6004805460010190559392505050565b6000828201838110156119fd5760408051600160e51b62461bcd02815260206004820152601b60248201527f536166654d6174683a206164646974696f6e206f766572666c6f770000000000604482015290519081900360640190fd5b90505b92915050565b60006119fd83836040518060400160405280601e81526020017f536166654d6174683a207375627472616374696f6e206f766572666c6f770000815250611c6a565b604080516001600160a01b0385811660248301528416604482015260648082018490528251808303909101815260849091019091526020810180516001600160e01b0316600160e01b6323b872dd02179052610920908590611d04565b611aad61222b565b611abd8560800151610100611ecb565b50509183526001600160a01b031660208301526001600160e01b031916604082015290565b611aef8260038351611f05565b611725828263ffffffff61200816565b610eb1816004612022565b610eb1816007612022565b60008112611b2e57611b2982600083611f05565b610923565b6109238260018360001903611f05565b8051602080830151604080850151606086810151608088015151935160006024820181815260448301829052606483018a90526001600160a01b03881660848401526001600160e01b0319861660a484015260c48301849052600160e48401819052610100610104850190815288516101248601528851969b600160e11b6320214ca3029b949a8b9a91999098909796939591949361014401918501908083838e5b83811015611bf8578181015183820152602001611be0565b50505050905090810190601f168015611c255780820380516001836020036101000a031916815260200191505b5060408051601f198184030181529190526020810180516001600160e01b03166001600160e01b0319909d169c909c17909b5250989950505050505050505050919050565b60008184841115611cfc57604051600160e51b62461bcd0281526004018080602001828103825283818151815260200191508051906020019080838360005b83811015611cc1578181015183820152602001611ca9565b50505050905090810190601f168015611cee5780820380516001836020036101000a031916815260200191505b509250505060405180910390fd5b505050900390565b611d16826001600160a01b031661203b565b1515611d6c5760408051600160e51b62461bcd02815260206004820152601f60248201527f5361666545524332303a2063616c6c20746f206e6f6e2d636f6e747261637400604482015290519081900360640190fd5b60006060836001600160a01b0316836040518082805190602001908083835b60208310611daa5780518252601f199092019160209182019101611d8b565b6001836020036101000a0380198251168184511680821785525050505050509050019150506000604051808303816000865af19150503d8060008114611e0c576040519150601f19603f3d011682016040523d82523d6000602084013e611e11565b606091505b5091509150811515611e6d5760408051600160e51b62461bcd02815260206004820181905260248201527f5361666545524332303a206c6f772d6c6576656c2063616c6c206661696c6564604482015290519081900360640190fd5b80511561092057808060200190516020811015611e8957600080fd5b5051151561092057604051600160e51b62461bcd02815260040180806020018281038252602a8152602001806124ce602a913960400191505060405180910390fd5b611ed3612260565b6020820615611ee85760208206602003820191505b506020828101829052604080518085526000815290920101905290565b60178111611f2d57611f278360ff80851660051b16831763ffffffff61207716565b50611725565b60ff8111611f6157611f4e83601860ff851660051b1763ffffffff61207716565b50611f278382600163ffffffff61208f16565b61ffff8111611f9657611f8383601960ff851660051b1763ffffffff61207716565b50611f278382600263ffffffff61208f16565b63ffffffff8111611fcd57611fba83601a60ff851660051b1763ffffffff61207716565b50611f278382600463ffffffff61208f16565b67ffffffffffffffff811161172557611ff583601b60ff851660051b1763ffffffff61207716565b506109208382600863ffffffff61208f16565b612010612260565b6119fd838460000151518485516120a8565b61172582601f60ff841660051b1763ffffffff61207716565b6000813f7fc5d2460186f7233c927e7db2dcc703c0e500b653ca82273b7bfad8045d85a470811580159061206f5750808214155b949350505050565b61207f612260565b6119fd8384600001515184612154565b612097612260565b61206f84856000015151858561219f565b6120b0612260565b82518211156120be57600080fd5b846020015182850111156120e8576120e8856120e087602001518786016121fd565b600202612214565b6000808651805187602083010193508088870111156121075787860182525b505050602084015b6020841061212e5780518252601f19909301926020918201910161210f565b51815160001960208690036101000a019081169019919091161790525083949350505050565b61215c612260565b6020840151831061217857612178848560200151600202612214565b8351805160208583010184815381861415612194576001820183525b509495945050505050565b6121a7612260565b846020015184830111156121c4576121c485858401600202612214565b60006001836101000a03905085518386820101858319825116178152815185880111156121f15784870182525b50959695505050505050565b60008183111561220e575081611a00565b50919050565b81516122208383611ecb565b506109208382612008565b6040805160c08101825260008082526020820181905291810182905260608101919091526080810161225b612260565b905290565b60405180604001604052806060815260200160008152509056fe4c69717569646974795265736572766553746174653a2063616c6c6572206973206e6f7420746865206c69717569646974792070726f76696465724f776e61626c653a206e6577206f776e657220697320746865207a65726f20616464726573734c6971756964697479526573657276653a206e6f7420617574686f72697a656420746f2063616c6c2070726963652066656564206f7261636c654c6971756964697479526573657276653a2063616e206e6f74206465706f736974203020616d6f756e74756e61626c6520746f207472616e73666572416e6443616c6c20746f206f7261636c654c69717569646974795265736572766553746174653a2063616c6c6572206973206e6f742074686520416c6b656d69204e6574776f726b20636f6e74726163744c69717569646974795265736572766553746174653a2063616c6c657220646f6573206e6f742068617665207065726d697373696f6e4c6971756964697479526573657276653a20696e73756666696369656e742062616c616e63654c6971756964697479526573657276653a204554482076616c7565206d69736d617463684c6971756964697479526573657276653a20696e76616c6964206e6577206c6f636b696e6720706572696f644c6971756964697479526573657276653a2063616e206e6f74206465706f73697420696e746f207468697320726573657276654c6971756964697479526573657276653a2066756e64732061726520756e6c6f636b6564536f75726365206d75737420626520746865206f7261636c65206f662074686520726571756573745361666545524332303a204552433230206f7065726174696f6e20646964206e6f7420737563636565644c6971756964697479526573657276653a2063616e206e6f74206465706f73697420616d6f756e7420657175616c20746f207a65726fa165627a7a723058205dd98fd1c14883ff2b0c16e15514d2f36916c3dc0f7a31a56d22ec6e4e73885000294c6971756964697479526573657276653a20696e76616c6964206c6f636b696e6720706572696f642074696d657374616d704c69717569646974795265736572766553746174653a20696e76616c6964206c69717569646974792070726f766964657220616464726573734c69717569646974795265736572766553746174653a20696e76616c6964206c6971756964697479206d616e6167657220636f6e747261637420616464726573734c6971756964697479526573657276653a20696e76616c6964207072696365206c6f636b6f7574416c6b656d694e6574776f726b3a204f6e6c79206f776e65722063616e20706572666f726d2074686973206f7065726174696f6e416c6b656d694e6574776f726b3a20696e76616c6964206f776e65722061646472657373416c6b656d694e6574776f726b3a20696e76616c6964206f7261636c652061646472657373a165627a7a72305820a4f3b05e70bde932f2caf5656b547efad4ca680e9d2cedc03f5e4d1a6d73d73e0029416c6b656d694e6574776f726b3a20696e76616c6964206f776e65722061646472657373",
  "source": "pragma solidity ^0.5.0;\n\nimport \"./interfaces/ILiquidityReserve.sol\";\nimport \"./liquidity-reserve/factory/LiquidityReserveFactory.sol\";\n\n/**\n * @title AlkemiNetwork\n * @notice This contract manage Alkemi Network on-chain process\n */\ncontract AlkemiNetwork is LiquidityReserveFactory {\n    /// @notice owner address\n    address public owner;\n\n    /// @notice alkemi oracle address\n    address public alkemiOracle;\n\n    mapping(address => address[]) public providerReserves;\n    mapping(address => address[]) public tokenReserves;\n\n    /// @notice settlement id\n    uint256 public currentSettlementId;\n\n    event ReserveCreate(\n        address indexed reserve,\n        address indexed liquidityProvider,\n        address indexed beneficiary,\n        uint256 lockingPeriod,\n        uint256 lockingPrice,\n        uint8 lockingPricePosition\n    );\n\n    constructor() public {\n        _setOwner(msg.sender);\n\n        currentSettlementId = 1;\n    }\n\n    /**\n   * @notice Verifies that the caller is the Owner\n   */\n    modifier onlyOwner() {\n        require(\n            msg.sender == owner,\n            \"AlkemiNetwork: Only owner can perform this operation\"\n        );\n        _;\n    }\n\n    /**\n   * @notice Verifies that the calles is Alkemi Oracle\n   */\n    modifier onlyAlkemiOracle() {\n        require(\n            msg.sender == alkemiOracle,\n            \"AlkemiNetwork: Only Alkemi Oracle can perform this operation\"\n        );\n        _;\n    }\n\n    /**\n   * @notice Get liquidity reserves addresses of a liquidity provider\n   * @param _liquidityProvider liquidity provider address\n   * @return active liquidity reserve contract addresses\n   */\n    function providerLiquidityReserves(address _liquidityProvider)\n        public\n        view\n        returns (address[] memory)\n    {\n        address[] memory _reserves = providerReserves[_liquidityProvider];\n        address[] memory _activeReserves = new address[](_reserves.length);\n\n        uint256 j = 0;\n        for (uint256 i = 0; i < _reserves.length; i++) {\n            if (ILiquidityReserve(_reserves[i]).isActive()) {\n                _activeReserves[j] = _reserves[i];\n                j++;\n            }\n        }\n        return _activeReserves;\n    }\n\n    /**\n   * @notice Get liquidity reserves addresses of a liquidity provider that hold specific asset\n   * @param _liquidityProvider liquidity provider address\n   * @param _asset asset address\n   * @return active liquidity reserve contract addresses\n   */\n    function providerTokenReserves(address _liquidityProvider, address _asset)\n        public\n        view\n        returns (address[] memory)\n    {\n        address[] memory _reserves = providerReserves[_liquidityProvider];\n        address[] memory _activeReserves = new address[](_reserves.length);\n\n        uint256 j = 0;\n        for (uint256 i = 0; i < _reserves.length; i++) {\n            if (ILiquidityReserve(_reserves[i]).isActive() && (ILiquidityReserve(_reserves[i]).asset() == _asset)) {\n                _activeReserves[j] = _reserves[i];\n                j++;\n            }\n        }\n        return _activeReserves;\n    }\n    \n    /**\n   * @notice Get liquidity reserves addresses that hold a specific asset\n   * @param _asset asset address\n   * @return liquidity reserves addresses\n   */\n    function tokenLiquidityReserves(address _asset)\n        public\n        view\n        returns (address[] memory)\n    {\n        address[] memory _reserves = tokenReserves[_asset];\n        address[] memory _activeReserves = new address[](_reserves.length);\n\n        uint256 j = 0;\n        for (uint256 i = 0; i < _reserves.length; i++) {\n            if (ILiquidityReserve(_reserves[i]).isActive()) {\n                _activeReserves[i] = _reserves[i];\n                j++;\n            }\n        }\n        return _activeReserves;\n    }\n\n    /**\n   * @notice Creates and initialises a new LiquidityReserve\n   * @param _beneficiary earnings beneficiary (address(0) if the earnings goes to the current reserve address)\n   * @param _asset asset address\n   * @param _lockingPeriod funds locking period\n   * @param _lockingPrice release funds when hitting this price\n   * @param _lockingPricePosition locking price position\n   * @return Address of new Liquidity Reserve\n   */\n    function createLiquidityReserve(\n        address _linkToken,\n        address _beneficiary,\n        address _asset,\n        uint256 _lockingPeriod,\n        uint256 _lockingPrice,\n        uint8 _lockingPricePosition\n    ) public returns (address) {\n        address r = _createLiquidityReserve(\n            _linkToken,\n            msg.sender,\n            address(this),\n            _beneficiary,\n            _asset,\n            _lockingPeriod,\n            _lockingPrice,\n            _lockingPricePosition\n        );\n\n        providerReserves[msg.sender].push(r);\n        tokenReserves[_asset].push(r);\n\n        emit ReserveCreate(\n            r,\n            msg.sender,\n            _beneficiary,\n            _lockingPeriod,\n            _lockingPrice,\n            _lockingPricePosition\n        );\n    }\n\n    /**\n   * @notice Set new owner address\n   * @dev can only be called by the AlkemiNetwork owner\n   * @param _owner Address of the new Owner\n   */\n    function setNewOwner(address _owner) public onlyOwner {\n        _setOwner(_owner);\n    }\n\n    /**\n   * @notice Set Alkemi Oracle address\n   * @dev can only be called by the AlkemiNetwork owner\n   * @param _oracle oracle address\n   */\n    function setAlkemiOracle(address _oracle) public onlyOwner {\n        _setAlkemiOracle(_oracle);\n    }\n\n    function _setOwner(address _owner) internal {\n        require(\n            (_owner != address(0)) && (_owner != address(this)),\n            \"AlkemiNetwork: invalid owner address\"\n        );\n\n        owner = _owner;\n    }\n\n    function _setAlkemiOracle(address _oracle) internal {\n        require(_oracle != address(0), \"AlkemiNetwork: invalid oracle address\");\n\n        alkemiOracle = _oracle;\n    }\n}\n",
  "sourcePath": "/Users/haythem96/Projects/Alkemi/alkemi-protocol/contracts/AlkemiNetwork.sol",
  "compiler": {
    "name": "solc",
    "version": "0.5.5+commit.47a71e8f.Emscripten.clang"
  },
  "schemaVersion": "3.0.21",
  "updatedAt": "2020-01-27T11:47:19.099Z",
  "networkType": "ethereum",
  "devdoc": {
    "methods": {
      "createLiquidityReserve(address,address,address,uint256,uint256,uint8)": {
        "params": {
          "_asset": "asset address",
          "_beneficiary": "earnings beneficiary (address(0) if the earnings goes to the current reserve address)",
          "_lockingPeriod": "funds locking period",
          "_lockingPrice": "release funds when hitting this price",
          "_lockingPricePosition": "locking price position"
        },
        "return": "Address of new Liquidity Reserve"
      },
      "providerLiquidityReserves(address)": {
        "params": {
          "_liquidityProvider": "liquidity provider address"
        },
        "return": "active liquidity reserve contract addresses"
      },
      "providerTokenReserves(address,address)": {
        "params": {
          "_asset": "asset address",
          "_liquidityProvider": "liquidity provider address"
        },
        "return": "active liquidity reserve contract addresses"
      },
      "setAlkemiOracle(address)": {
        "details": "can only be called by the AlkemiNetwork owner",
        "params": {
          "_oracle": "oracle address"
        }
      },
      "setNewOwner(address)": {
        "details": "can only be called by the AlkemiNetwork owner",
        "params": {
          "_owner": "Address of the new Owner"
        }
      },
      "tokenLiquidityReserves(address)": {
        "params": {
          "_asset": "asset address"
        },
        "return": "liquidity reserves addresses"
      }
    },
    "title": "AlkemiNetwork"
  },
  "userdoc": {
    "methods": {
      "createLiquidityReserve(address,address,address,uint256,uint256,uint8)": {
        "notice": "Creates and initialises a new LiquidityReserve"
      },
      "providerLiquidityReserves(address)": {
        "notice": "Get liquidity reserves addresses of a liquidity provider"
      },
      "providerTokenReserves(address,address)": {
        "notice": "Get liquidity reserves addresses of a liquidity provider that hold specific asset"
      },
      "setAlkemiOracle(address)": {
        "notice": "Set Alkemi Oracle address"
      },
      "setNewOwner(address)": {
        "notice": "Set new owner address"
      },
      "tokenLiquidityReserves(address)": {
        "notice": "Get liquidity reserves addresses that hold a specific asset"
      }
    },
    "notice": "This contract manage Alkemi Network on-chain process"
  }
}