{
  "contractName": "AlkemiOracle",
  "abi": [
    {
      "constant": true,
      "inputs": [
        {
          "name": "",
          "type": "uint256"
        },
        {
          "name": "",
          "type": "uint256"
        }
      ],
      "name": "settlementBannedNode",
      "outputs": [
        {
          "name": "",
          "type": "address"
        }
      ],
      "payable": false,
      "stateMutability": "view",
      "type": "function"
    },
    {
      "constant": true,
      "inputs": [],
      "name": "oracleGuard",
      "outputs": [
        {
          "name": "",
          "type": "address"
        }
      ],
      "payable": false,
      "stateMutability": "view",
      "type": "function"
    },
    {
      "constant": true,
      "inputs": [
        {
          "name": "",
          "type": "bytes32"
        },
        {
          "name": "",
          "type": "address"
        }
      ],
      "name": "accountingVotedNode",
      "outputs": [
        {
          "name": "",
          "type": "bool"
        }
      ],
      "payable": false,
      "stateMutability": "view",
      "type": "function"
    },
    {
      "constant": true,
      "inputs": [
        {
          "name": "",
          "type": "uint256"
        }
      ],
      "name": "settlementBookHash",
      "outputs": [
        {
          "name": "",
          "type": "bytes32"
        }
      ],
      "payable": false,
      "stateMutability": "view",
      "type": "function"
    },
    {
      "constant": true,
      "inputs": [
        {
          "name": "",
          "type": "bytes32"
        }
      ],
      "name": "settlementVoting",
      "outputs": [
        {
          "name": "node",
          "type": "address"
        },
        {
          "name": "settlementId",
          "type": "uint256"
        },
        {
          "name": "bookHash",
          "type": "bytes32"
        },
        {
          "name": "minimumVotes",
          "type": "uint256"
        },
        {
          "name": "yesVotes",
          "type": "uint256"
        },
        {
          "name": "noVotes",
          "type": "uint256"
        },
        {
          "name": "isSettled",
          "type": "bool"
        }
      ],
      "payable": false,
      "stateMutability": "view",
      "type": "function"
    },
    {
      "constant": true,
      "inputs": [],
      "name": "alkemiNetwork",
      "outputs": [
        {
          "name": "",
          "type": "address"
        }
      ],
      "payable": false,
      "stateMutability": "view",
      "type": "function"
    },
    {
      "inputs": [
        {
          "name": "_oracleGuard",
          "type": "address"
        },
        {
          "name": "_alkemiNetwork",
          "type": "address"
        }
      ],
      "payable": false,
      "stateMutability": "nonpayable",
      "type": "constructor"
    },
    {
      "anonymous": false,
      "inputs": [
        {
          "indexed": true,
          "name": "settlementId",
          "type": "uint256"
        },
        {
          "indexed": false,
          "name": "bookHash",
          "type": "bytes32"
        }
      ],
      "name": "Settlement",
      "type": "event"
    },
    {
      "anonymous": false,
      "inputs": [
        {
          "indexed": true,
          "name": "settlementId",
          "type": "uint256"
        }
      ],
      "name": "RequestAccountingBook",
      "type": "event"
    },
    {
      "anonymous": false,
      "inputs": [
        {
          "indexed": true,
          "name": "settlementId",
          "type": "uint256"
        },
        {
          "indexed": false,
          "name": "bookHash",
          "type": "bytes32"
        }
      ],
      "name": "RequestVote",
      "type": "event"
    },
    {
      "anonymous": false,
      "inputs": [
        {
          "indexed": true,
          "name": "settlementId",
          "type": "uint256"
        }
      ],
      "name": "RequestStopTrade",
      "type": "event"
    },
    {
      "anonymous": false,
      "inputs": [
        {
          "indexed": false,
          "name": "settlementId",
          "type": "uint256"
        },
        {
          "indexed": false,
          "name": "settlementTimeStamp",
          "type": "uint256"
        }
      ],
      "name": "RequestContinueTrade",
      "type": "event"
    },
    {
      "constant": true,
      "inputs": [],
      "name": "getSettlementId",
      "outputs": [
        {
          "name": "",
          "type": "uint256"
        }
      ],
      "payable": false,
      "stateMutability": "view",
      "type": "function"
    },
    {
      "constant": false,
      "inputs": [
        {
          "name": "exchangesAddresses",
          "type": "address[]"
        },
        {
          "name": "surplusTokensAddresses",
          "type": "address[]"
        },
        {
          "name": "deficitTokensAddresses",
          "type": "address[]"
        },
        {
          "name": "surplus",
          "type": "uint128[]"
        },
        {
          "name": "deficit",
          "type": "uint128[]"
        },
        {
          "name": "_settlementId",
          "type": "uint256"
        },
        {
          "name": "_bookHash",
          "type": "bytes32"
        }
      ],
      "name": "submitBook",
      "outputs": [],
      "payable": false,
      "stateMutability": "nonpayable",
      "type": "function"
    },
    {
      "constant": false,
      "inputs": [
        {
          "name": "_settlementId",
          "type": "uint256"
        },
        {
          "name": "_bookHash",
          "type": "bytes32"
        },
        {
          "name": "_vote",
          "type": "uint8"
        }
      ],
      "name": "settlementVote",
      "outputs": [],
      "payable": false,
      "stateMutability": "nonpayable",
      "type": "function"
    },
    {
      "constant": false,
      "inputs": [
        {
          "name": "settlementId",
          "type": "uint256"
        },
        {
          "name": "settlementTime",
          "type": "uint256"
        }
      ],
      "name": "restartContainersTrading",
      "outputs": [],
      "payable": false,
      "stateMutability": "nonpayable",
      "type": "function"
    }
  ],
  "bytecode": "0x608060405234801561001057600080fd5b506040516040806117638339810180604052604081101561003057600080fd5b5080516020909101516001600160a01b038216151561009a576040517f08c379a000000000000000000000000000000000000000000000000000000000815260040180806020018281038252602a815260200180611739602a913960400191505060405180910390fd5b6001600160a01b03811615156100fb576040517f08c379a000000000000000000000000000000000000000000000000000000000815260040180806020018281038252602c81526020018061170d602c913960400191505060405180910390fd5b600480546001600160a01b039384166001600160a01b031991821617909155600580549290931691161790556115d7806101366000396000f3fe608060405234801561001057600080fd5b506004361061009e5760003560e01c80639b540a5e116100665780639b540a5e14610155578063b5c91d9e14610195578063d01a9e6a146101b2578063d569948e14610366578063ed74770f146103c75761009e565b80631dab098f146100a3578063233301ff146100e2578063321a355a146100fc5780634a5b542d14610121578063588769cf1461014d575b600080fd5b6100c6600480360360408110156100b957600080fd5b50803590602001356103cf565b604080516001600160a01b039092168252519081900360200190f35b6100ea610406565b60408051918252519081900360200190f35b61011f6004803603604081101561011257600080fd5b508035906020013561055d565b005b61011f6004803603606081101561013757600080fd5b508035906020810135906040013560ff16610670565b6100c6610cd8565b6101816004803603604081101561016b57600080fd5b50803590602001356001600160a01b0316610ce7565b604080519115158252519081900360200190f35b6100ea600480360360208110156101ab57600080fd5b5035610d07565b61011f600480360360e08110156101c857600080fd5b810190602081018135600160201b8111156101e257600080fd5b8201836020820111156101f457600080fd5b803590602001918460208302840111600160201b8311171561021557600080fd5b919390929091602081019035600160201b81111561023257600080fd5b82018360208201111561024457600080fd5b803590602001918460208302840111600160201b8311171561026557600080fd5b919390929091602081019035600160201b81111561028257600080fd5b82018360208201111561029457600080fd5b803590602001918460208302840111600160201b831117156102b557600080fd5b919390929091602081019035600160201b8111156102d257600080fd5b8201836020820111156102e457600080fd5b803590602001918460208302840111600160201b8311171561030557600080fd5b919390929091602081019035600160201b81111561032257600080fd5b82018360208201111561033457600080fd5b803590602001918460208302840111600160201b8311171561035557600080fd5b919350915080359060200135610d19565b6103836004803603602081101561037c57600080fd5b5035611174565b604080516001600160a01b0390981688526020880196909652868601949094526060860192909252608085015260a0840152151560c0830152519081900360e00190f35b6100c66111be565b6000602052816000526040600020818154811015156103ea57fe5b6000918252602090912001546001600160a01b03169150829050565b6004805460408051600160e11b63492cae2b0281523393810193909352516000926001600160a01b03909216916392595c56916024808301926020929190829003018186803b15801561045857600080fd5b505afa15801561046c573d6000803e3d6000fd5b505050506040513d602081101561048257600080fd5b505115156001146104dd5760408051600160e51b62461bcd02815260206004820152601b60248201527f4f7261636c653a206e6f7420617574686f72697a6564206e6f64650000000000604482015290519081900360640190fd5b600560009054906101000a90046001600160a01b03166001600160a01b031663ddfeb9756040518163ffffffff1660e01b815260040160206040518083038186803b15801561052b57600080fd5b505afa15801561053f573d6000803e3d6000fd5b505050506040513d602081101561055557600080fd5b505190505b90565b6004805460408051600160e01b63cc129e310281523393810193909352516001600160a01b039091169163cc129e31916024808301926020929190829003018186803b1580156105ac57600080fd5b505afa1580156105c0573d6000803e3d6000fd5b505050506040513d60208110156105d657600080fd5b505115156001146106315760408051600160e51b62461bcd02815260206004820152601f60248201527f4f7261636c653a206e6f7420617574686f72697a656420636f6e747261637400604482015290519081900360640190fd5b604080518381526020810183905281517f9bdd9b1f28dfc086a6dede968f2774cc1288cdb653b5cb9d2ff082c94bfa7ac3929181900390910190a15050565b6004805460408051600160e11b63492cae2b0281523393810193909352516001600160a01b03909116916392595c56916024808301926020929190829003018186803b1580156106bf57600080fd5b505afa1580156106d3573d6000803e3d6000fd5b505050506040513d60208110156106e957600080fd5b505115156001146107445760408051600160e51b62461bcd02815260206004820152601b60248201527f4f7261636c653a206e6f7420617574686f72697a6564206e6f64650000000000604482015290519081900360640190fd5b600083815260016020526040902054821461079357604051600160e51b62461bcd0281526004018080602001828103825260488152602001806115646048913960600191505060405180910390fd5b600082815260036020908152604080832033845290915290205460ff1615156001141561080a5760408051600160e51b62461bcd02815260206004820152601a60248201527f4f7261636c653a206e6f646520616c726561647920766f746564000000000000604482015290519081900360640190fd5b60008281526003602090815260408083203384529091528120805460ff1916600190811790915560ff83169081111561083f57fe5b600084815260026020526040812091925082600181111561085c57fe5b1415610c0457600481018054600101908190556003820154118015906108875750600681015460ff16155b15610bff5760068101805460ff1916600117905560048054600087815260208181526040918290209151600160e51b63035f70170281529384019081528154602485018190526001600160a01b0390931693636bee02e0938291604401908490801561091c57602002820191906000526020600020905b81546001600160a01b031681526001909101906020018083116108fe575b505092505050600060405180830381600087803b15801561093c57600080fd5b505af1158015610950573d6000803e3d6000fd5b50505050600560009054906101000a90046001600160a01b03166001600160a01b0316633d3d965982600701836008018460090185600a0186600b016040518663ffffffff1660e01b815260040180806020018060200180602001806020018060200186810386528b81815481526020019150805480156109fa57602002820191906000526020600020905b81546001600160a01b031681526001909101906020018083116109dc575b505086810385528a8181548152602001915080548015610a4357602002820191906000526020600020905b81546001600160a01b03168152600190910190602001808311610a25575b50508681038452898181548152602001915080548015610a8c57602002820191906000526020600020905b81546001600160a01b03168152600190910190602001808311610a6e575b50508681038352888181548152602001915080548015610afd57602002820191906000526020600020906000905b82829054906101000a90046001600160801b03166001600160801b031681526020019060100190602082600f01049283019260010382029150808411610aba5790505b50508681038252878181548152602001915080548015610b6e57602002820191906000526020600020906000905b82829054906101000a90046001600160801b03166001600160801b031681526020019060100190602082600f01049283019260010382029150808411610b2b5790505b50509a5050505050505050505050602060405180830381600087803b158015610b9657600080fd5b505af1158015610baa573d6000803e3d6000fd5b505050506040513d6020811015610bc057600080fd5b50506001810154600282015460408051918252517f63c27022b3a58d7bc4375447fe57110a860b570c2c5903b246456b1c849f7f469181900360200190a25b610cd1565b60058101805460010190819055600382015411610cd15760048054825460408051600160e01b63c6a71aa30281526001600160a01b03928316948101949094525191169163c6a71aa391602480830192600092919082900301818387803b158015610c6e57600080fd5b505af1158015610c82573d6000803e3d6000fd5b505050600086815260208181526040822084548154600181810184559285528385200180546001600160a01b0319166001600160a01b03909216919091179055918890525250610cd1856111cd565b5050505050565b6004546001600160a01b031681565b600360209081526000928352604080842090915290825290205460ff1681565b60016020526000908152604090205481565b6004805460408051600160e11b63492cae2b0281523393810193909352516001600160a01b03909116916392595c56916024808301926020929190829003018186803b158015610d6857600080fd5b505afa158015610d7c573d6000803e3d6000fd5b505050506040513d6020811015610d9257600080fd5b50511515600114610ded5760408051600160e51b62461bcd02815260206004820152601b60248201527f4f7261636c653a206e6f7420617574686f72697a6564206e6f64650000000000604482015290519081900360640190fd5b60008281526001602052604090205415610e3b57604051600160e51b62461bcd02815260040180806020018281038252603581526020018061152f6035913960400191505060405180910390fd5b6000600460009054906101000a90046001600160a01b03166001600160a01b031663578ce4c56040518163ffffffff1660e01b815260040160206040518083038186803b158015610e8b57600080fd5b505afa158015610e9f573d6000803e3d6000fd5b505050506040513d6020811015610eb557600080fd5b50519050610ec1611355565b60408051610180810182523381526020810186905290810184905260608101610ef184600263ffffffff6111fb16565b600101815260200160008152602001600081526020016000151581526020018f8f80806020026020016040519081016040528093929190818152602001838360200280828437600081840152601f19601f8201169050808301925050505050505081526020018d8d808060200260200160405190810160405280939291908181526020018383602002808284376000920191909152505050908252506040805160208d810282810182019093528d82529283019290918e918e9182918501908490808284376000920191909152505050908252506040805160208b810282810182019093528b82529283019290918c918c91829185019084908082843760009201919091525050509082525060408051602089810282810182019093528982529283019290918a918a9182918501908490808284376000920182905250939094525050868152600160208181526040808420899055888452600280835293819020865181546001600160a01b0319166001600160a01b03909116178155868301519381019390935585015192820192909255606084015160038201556080840151600482015560a0840151600582015560c084015160068201805460ff191691151591909117905560e0840151805194955085949193506110d99260078501929101906113c4565b5061010082015180516110f69160088401916020909101906113c4565b5061012082015180516111139160098401916020909101906113c4565b50610140820151805161113091600a840191602090910190611429565b50610160820151805161114d91600b840191602090910190611429565b5090505061115a84611244565b6111648484611272565b5050505050505050505050505050565b600260208190526000918252604090912080546001820154928201546003830154600484015460058501546006909501546001600160a01b03909416959492939192909160ff1687565b6005546001600160a01b031681565b60405181907f188ea46f6c83deed008f9739cc2a4c2a2efadbe6486a5fffac9316d9013dfd4d90600090a250565b600061123d83836040518060400160405280601a81526020017f536166654d6174683a206469766973696f6e206279207a65726f0000000000008152506112ac565b9392505050565b60405181907f11dea5acd82700b2f615b8109c12bdc4996ca974ed2057db6efa9c05ed4b567990600090a250565b60408051828152905183917fb1dcc40f7030104d75ecbf3d1859a6c789f7bd466ea4b9de6fa3516cab013c16919081900360200190a25050565b60008183151561133d57604051600160e51b62461bcd0281526004018080602001828103825283818151815260200191508051906020019080838360005b838110156113025781810151838201526020016112ea565b50505050905090810190601f16801561132f5780820380516001836020036101000a031916815260200191505b509250505060405180910390fd5b506000838581151561134b57fe5b0495945050505050565b60405180610180016040528060006001600160a01b03168152602001600081526020016000801916815260200160008152602001600081526020016000815260200160001515815260200160608152602001606081526020016060815260200160608152602001606081525090565b828054828255906000526020600020908101928215611419579160200282015b8281111561141957825182546001600160a01b0319166001600160a01b039091161782556020909201916001909101906113e4565b506114259291506114dd565b5090565b828054828255906000526020600020906001016002900481019282156114d15791602002820160005b8382111561149c57835183826101000a8154816001600160801b0302191690836001600160801b031602179055509260200192601001602081600f01049283019260010302611452565b80156114cf5782816101000a8154906001600160801b030219169055601001602081600f0104928301926001030261149c565b505b50611425929150611501565b61055a91905b808211156114255780546001600160a01b03191681556001016114e3565b61055a91905b808211156114255780546fffffffffffffffffffffffffffffffff1916815560010161150756fe4f7261636c653a20626f6f6b20616c7265616479207375626d697474656420666f72207468697320736574746c656d656e742069644f7261636c653a20696e76616c6964206163636f756e74696e6720626f6f6b20746f20766f7465206f6e20666f72207468652063757272656e7420736574746c656d656e74206964a165627a7a72305820ecfcb808e2f7cad5298e96d44ab5323ce5c8110731e85599bde3db55774ec9a70029416c6b656d694f7261636c653a20696e76616c696420616c6b656d69206e6574776f726b2061646472657373416c6b656d694f7261636c653a20696e76616c6964206f7261636c652067756172642061646472657373",
  "source": "pragma solidity ^0.5.0;\n\nimport \"../interfaces/IOracleGuard.sol\";\nimport \"../interfaces/IAlkemiNetwork.sol\";\nimport \"@openzeppelin/contracts/math/SafeMath.sol\";\n\ncontract AlkemiOracle {\n    using SafeMath for uint256;\n\n    /// @notice mapping of banned nodes by settlement id\n    mapping(uint256 => address[]) public settlementBannedNode;\n\n    /// @notice mapping of book hash by settlement id\n    mapping(uint256 => bytes32) public settlementBookHash;\n\n    /// @notice mapping settlement voting by book hash\n    mapping(bytes32 => SettlementVoting) public settlementVoting;\n\n    /// @notice mapping of voted nodes by book hash\n    mapping(bytes32 => mapping(address => bool)) public accountingVotedNode;\n\n    /// @notice oracle guard instance\n    address public oracleGuard;\n\n    /// @notice alkemi network instance\n    address public alkemiNetwork;\n\n    enum Vote {YES, NO}\n\n    struct SettlementVoting {\n        address node;\n        uint256 settlementId;\n        bytes32 bookHash;\n        uint256 minimumVotes;\n        uint256 yesVotes;\n        uint256 noVotes;\n        bool isSettled;\n        address[] exchangesAddresses;\n        address[] surplusTokensAddresses;\n        address[] deficitTokensAddresses;\n        uint128[] surplus;\n        uint128[] deficit;\n    }\n\n    event Settlement(uint256 indexed settlementId, bytes32 bookHash);\n    event RequestAccountingBook(uint256 indexed settlementId);\n    event RequestVote(uint256 indexed settlementId, bytes32 bookHash);\n    event RequestStopTrade(uint256 indexed settlementId);\n    event RequestContinueTrade(\n        uint256 settlementId,\n        uint256 settlementTimeStamp\n    );\n\n    constructor(address _oracleGuard, address _alkemiNetwork) public {\n        require(\n            _oracleGuard != address(0),\n            \"AlkemiOracle: invalid oracle guard address\"\n        );\n        require(\n            _alkemiNetwork != address(0),\n            \"AlkemiOracle: invalid alkemi network address\"\n        );\n\n        oracleGuard = _oracleGuard;\n        alkemiNetwork = _alkemiNetwork;\n    }\n\n    function getSettlementId() external view returns (uint256) {\n        require(\n            IOracleGuard(oracleGuard).isNodeAuth(msg.sender) == true,\n            \"Oracle: not authorized node\"\n        );\n\n        return IAlkemiNetwork(alkemiNetwork).currentSettlementId();\n    }\n\n    /**\n    * @notice submit book hash and settlement details to vote for\n    * @param exchangesAddresses list of exchanges addresses\n    * @param surplusTokensAddresses list of tokens for surplus\n    * @param deficitTokensAddresses list of tokens for deficit\n    * @param surplus list of surplus values\n    * @param deficit list of deficit values\n    * @param _settlementId book settlement id\n    * @param _bookHash book hash\n    */\n    function submitBook(\n        address[] calldata exchangesAddresses,\n        address[] calldata surplusTokensAddresses,\n        address[] calldata deficitTokensAddresses,\n        uint128[] calldata surplus,\n        uint128[] calldata deficit,\n        uint256 _settlementId,\n        bytes32 _bookHash\n    ) external {\n        require(\n            IOracleGuard(oracleGuard).isNodeAuth(msg.sender) == true,\n            \"Oracle: not authorized node\"\n        );\n        require(\n            settlementBookHash[_settlementId] == bytes32(0),\n            \"Oracle: book already submitted for this settlement id\"\n        );\n\n        uint256 _minimumVotes = IOracleGuard(oracleGuard).nodesCounter();\n\n        SettlementVoting memory voting = SettlementVoting({\n            node: msg.sender,\n            settlementId: _settlementId,\n            bookHash: _bookHash,\n            minimumVotes: _minimumVotes.div(2) + 1,\n            yesVotes: 0,\n            noVotes: 0,\n            isSettled: false,\n            exchangesAddresses: exchangesAddresses,\n            surplusTokensAddresses: surplusTokensAddresses,\n            deficitTokensAddresses: deficitTokensAddresses,\n            surplus: surplus,\n            deficit: deficit\n        });\n\n        settlementBookHash[_settlementId] = _bookHash;\n        settlementVoting[_bookHash] = voting;\n\n        stopContainersTrading(_settlementId);\n\n        // Request vote from nodes\n        requestNodesVoting(_settlementId, _bookHash);\n    }\n\n    function settlementVote(\n        uint256 _settlementId,\n        bytes32 _bookHash,\n        uint8 _vote\n    ) external {\n        require(\n            IOracleGuard(oracleGuard).isNodeAuth(msg.sender) == true,\n            \"Oracle: not authorized node\"\n        );\n        require(\n            settlementBookHash[_settlementId] == _bookHash,\n            \"Oracle: invalid accounting book to vote on for the current settlement id\"\n        );\n        require(\n            accountingVotedNode[_bookHash][msg.sender] != true,\n            \"Oracle: node already voted\"\n        );\n\n        accountingVotedNode[_bookHash][msg.sender] = true;\n\n        Vote vote = Vote(_vote);\n\n        SettlementVoting storage voting = settlementVoting[_bookHash];\n        if (vote == Vote.YES) {\n            voting.yesVotes++;\n\n            if (\n                (voting.yesVotes >= voting.minimumVotes) &&\n                (voting.isSettled == false)\n            ) {\n                voting.isSettled = true;\n                // un-ban nodes\n                IOracleGuard(oracleGuard).authNode(\n                    settlementBannedNode[_settlementId]\n                );\n\n                //call settlement contract\n                IAlkemiNetwork(alkemiNetwork).doSettlement(\n                    voting.exchangesAddresses,\n                    voting.surplusTokensAddresses,\n                    voting.deficitTokensAddresses,\n                    voting.surplus,\n                    voting.deficit\n                );\n\n                emit Settlement(voting.settlementId, voting.bookHash);\n            }\n        } else {\n            voting.noVotes++;\n\n            if (voting.noVotes >= voting.minimumVotes) {\n                // ban book submitter for the current settlement id\n                IOracleGuard(oracleGuard).dropNode(voting.node);\n                settlementBannedNode[_settlementId].push(voting.node);\n                settlementBookHash[_settlementId] == bytes32(0);\n\n                // request re-submittig book from the rest of the nodes\n                requestAccountingBook(_settlementId);\n            }\n        }\n    }\n\n    function requestNodesVoting(uint256 _settlementId, bytes32 _bookHash)\n        internal\n    {\n        emit RequestVote(_settlementId, _bookHash);\n    }\n\n    function requestAccountingBook(uint256 _settlementId) internal {\n        emit RequestAccountingBook(_settlementId);\n    }\n\n    function restartContainersTrading(\n        uint256 settlementId,\n        uint256 settlementTime\n    ) external {\n        require(\n            IOracleGuard(oracleGuard).isContractAuth(msg.sender) == true,\n            \"Oracle: not authorized contract\"\n        );\n\n        emit RequestContinueTrade(settlementId, settlementTime);\n    }\n\n    function stopContainersTrading(uint256 settlementId) internal {\n        emit RequestStopTrade(settlementId);\n    }\n}\n",
  "sourcePath": "/Users/haythem96/Projects/Alkemi/alkemi-protocol/contracts/oracles/AlkemiOracle.sol",
  "compiler": {
    "name": "solc",
    "version": "0.5.5+commit.47a71e8f.Emscripten.clang"
  },
  "schemaVersion": "3.0.21",
  "updatedAt": "2020-01-27T11:03:20.541Z",
  "networkType": "ethereum",
  "devdoc": {
    "methods": {
      "submitBook(address[],address[],address[],uint128[],uint128[],uint256,bytes32)": {
        "params": {
          "_bookHash": "book hash",
          "_settlementId": "book settlement id",
          "deficit": "list of deficit values",
          "deficitTokensAddresses": "list of tokens for deficit",
          "exchangesAddresses": "list of exchanges addresses",
          "surplus": "list of surplus values",
          "surplusTokensAddresses": "list of tokens for surplus"
        }
      }
    }
  },
  "userdoc": {
    "methods": {
      "submitBook(address[],address[],address[],uint128[],uint128[],uint256,bytes32)": {
        "notice": "submit book hash and settlement details to vote for"
      }
    }
  }
}