{
  "contractName": "EtherTokenConstantMock",
  "abi": [
    {
      "constant": true,
      "inputs": [],
      "name": "getETHConstant",
      "outputs": [
        {
          "name": "",
          "type": "address"
        }
      ],
      "payable": false,
      "stateMutability": "pure",
      "type": "function"
    }
  ],
  "bytecode": "0x6080604052348015600f57600080fd5b5060808061001e6000396000f3fe6080604052348015600f57600080fd5b506004361060285760003560e01c806317e5123b14602d575b600080fd5b6033604f565b604080516001600160a01b039092168252519081900360200190f35b60009056fea165627a7a7230582015128e8a99902bfe6e6c4e2555071714a1efb68a7c275405b9b2f87ec7392a680029",
  "source": "pragma solidity ^0.5.0;\n\ncontract EtherTokenConstantMock {\n    address constant ETH = address(0);\n\n    function getETHConstant() external pure returns (address) {\n        return ETH;\n    }\n}\n",
  "sourcePath": "/Users/haythem96/Projects/Alkemi/alkemi-protocol/contracts/mocks/EtherTokenContantMock.sol",
  "compiler": {
    "name": "solc",
    "version": "0.5.5+commit.47a71e8f.Emscripten.clang"
  },
  "schemaVersion": "3.0.21",
  "updatedAt": "2020-01-29T10:52:28.139Z",
  "devdoc": {
    "methods": {}
  },
  "userdoc": {
    "methods": {}
  }
}