{
  "contractName": "LiquidityReserve",
  "abi": [
    {
      "constant": true,
      "inputs": [],
      "name": "isLiquidityprovider",
      "outputs": [
        {
          "name": "",
          "type": "bool"
        }
      ],
      "payable": false,
      "stateMutability": "view",
      "type": "function"
    },
    {
      "constant": true,
      "inputs": [],
      "name": "lockingPricePosition",
      "outputs": [
        {
          "name": "",
          "type": "uint8"
        }
      ],
      "payable": false,
      "stateMutability": "view",
      "type": "function"
    },
    {
      "constant": true,
      "inputs": [],
      "name": "beneficiary",
      "outputs": [
        {
          "name": "",
          "type": "address"
        }
      ],
      "payable": false,
      "stateMutability": "view",
      "type": "function"
    },
    {
      "constant": true,
      "inputs": [],
      "name": "asset",
      "outputs": [
        {
          "name": "",
          "type": "address"
        }
      ],
      "payable": false,
      "stateMutability": "view",
      "type": "function"
    },
    {
      "constant": true,
      "inputs": [],
      "name": "isDepositable",
      "outputs": [
        {
          "name": "",
          "type": "bool"
        }
      ],
      "payable": false,
      "stateMutability": "view",
      "type": "function"
    },
    {
      "constant": true,
      "inputs": [],
      "name": "lockingPeriod",
      "outputs": [
        {
          "name": "",
          "type": "uint256"
        }
      ],
      "payable": false,
      "stateMutability": "view",
      "type": "function"
    },
    {
      "constant": true,
      "inputs": [],
      "name": "liquidityProvider",
      "outputs": [
        {
          "name": "",
          "type": "address"
        }
      ],
      "payable": false,
      "stateMutability": "view",
      "type": "function"
    },
    {
      "constant": true,
      "inputs": [],
      "name": "oraclePrice",
      "outputs": [
        {
          "name": "",
          "type": "uint256"
        }
      ],
      "payable": false,
      "stateMutability": "view",
      "type": "function"
    },
    {
      "constant": true,
      "inputs": [],
      "name": "lockingPrice",
      "outputs": [
        {
          "name": "",
          "type": "uint256"
        }
      ],
      "payable": false,
      "stateMutability": "view",
      "type": "function"
    },
    {
      "constant": true,
      "inputs": [],
      "name": "isAlkemiNetwork",
      "outputs": [
        {
          "name": "",
          "type": "bool"
        }
      ],
      "payable": false,
      "stateMutability": "view",
      "type": "function"
    },
    {
      "constant": false,
      "inputs": [
        {
          "name": "newLiquidityprovider",
          "type": "address"
        }
      ],
      "name": "transferLiquidityProvider",
      "outputs": [],
      "payable": false,
      "stateMutability": "nonpayable",
      "type": "function"
    },
    {
      "constant": true,
      "inputs": [],
      "name": "lastPriceCheck",
      "outputs": [
        {
          "name": "",
          "type": "uint256"
        }
      ],
      "payable": false,
      "stateMutability": "view",
      "type": "function"
    },
    {
      "constant": true,
      "inputs": [],
      "name": "totalBalance",
      "outputs": [
        {
          "name": "",
          "type": "uint256"
        }
      ],
      "payable": false,
      "stateMutability": "view",
      "type": "function"
    },
    {
      "constant": true,
      "inputs": [],
      "name": "havePermission",
      "outputs": [
        {
          "name": "",
          "type": "bool"
        }
      ],
      "payable": false,
      "stateMutability": "view",
      "type": "function"
    },
    {
      "constant": true,
      "inputs": [],
      "name": "earned",
      "outputs": [
        {
          "name": "",
          "type": "uint256"
        }
      ],
      "payable": false,
      "stateMutability": "view",
      "type": "function"
    },
    {
      "constant": true,
      "inputs": [],
      "name": "alkemiNetwork",
      "outputs": [
        {
          "name": "",
          "type": "address"
        }
      ],
      "payable": false,
      "stateMutability": "view",
      "type": "function"
    },
    {
      "constant": true,
      "inputs": [],
      "name": "deposited",
      "outputs": [
        {
          "name": "",
          "type": "uint256"
        }
      ],
      "payable": false,
      "stateMutability": "view",
      "type": "function"
    },
    {
      "inputs": [
        {
          "name": "_link",
          "type": "address"
        },
        {
          "name": "_liquidityProvider",
          "type": "address"
        },
        {
          "name": "_alkemiNetwork",
          "type": "address"
        },
        {
          "name": "_beneficiary",
          "type": "address"
        },
        {
          "name": "_asset",
          "type": "address"
        },
        {
          "name": "_lockingPeriod",
          "type": "uint256"
        },
        {
          "name": "_lockingPrice",
          "type": "uint256"
        },
        {
          "name": "_lockingPricePosition",
          "type": "uint8"
        }
      ],
      "payable": false,
      "stateMutability": "nonpayable",
      "type": "constructor"
    },
    {
      "anonymous": false,
      "inputs": [
        {
          "indexed": true,
          "name": "token",
          "type": "address"
        },
        {
          "indexed": true,
          "name": "sender",
          "type": "address"
        },
        {
          "indexed": false,
          "name": "amount",
          "type": "uint256"
        }
      ],
      "name": "ReserveDeposit",
      "type": "event"
    },
    {
      "anonymous": false,
      "inputs": [
        {
          "indexed": true,
          "name": "token",
          "type": "address"
        },
        {
          "indexed": true,
          "name": "withdrawer",
          "type": "address"
        },
        {
          "indexed": false,
          "name": "amount",
          "type": "uint256"
        }
      ],
      "name": "ReserveWithdraw",
      "type": "event"
    },
    {
      "anonymous": false,
      "inputs": [
        {
          "indexed": true,
          "name": "token",
          "type": "address"
        },
        {
          "indexed": true,
          "name": "to",
          "type": "address"
        },
        {
          "indexed": false,
          "name": "amount",
          "type": "uint256"
        }
      ],
      "name": "ReserveApprove",
      "type": "event"
    },
    {
      "anonymous": false,
      "inputs": [
        {
          "indexed": true,
          "name": "token",
          "type": "address"
        },
        {
          "indexed": true,
          "name": "to",
          "type": "address"
        },
        {
          "indexed": false,
          "name": "amount",
          "type": "uint256"
        }
      ],
      "name": "ReserveTransfer",
      "type": "event"
    },
    {
      "anonymous": false,
      "inputs": [
        {
          "indexed": false,
          "name": "lockingPrice",
          "type": "uint256"
        },
        {
          "indexed": false,
          "name": "oraclePrice",
          "type": "uint256"
        },
        {
          "indexed": false,
          "name": "lockingPricePosition",
          "type": "uint256"
        }
      ],
      "name": "PriceUnlock",
      "type": "event"
    },
    {
      "anonymous": false,
      "inputs": [
        {
          "indexed": true,
          "name": "previousProvider",
          "type": "address"
        },
        {
          "indexed": true,
          "name": "newProvider",
          "type": "address"
        }
      ],
      "name": "LiquidityProviderChanged",
      "type": "event"
    },
    {
      "anonymous": false,
      "inputs": [
        {
          "indexed": true,
          "name": "previousContract",
          "type": "address"
        },
        {
          "indexed": true,
          "name": "newContract",
          "type": "address"
        }
      ],
      "name": "settlementContractChanged",
      "type": "event"
    },
    {
      "anonymous": false,
      "inputs": [
        {
          "indexed": true,
          "name": "id",
          "type": "bytes32"
        }
      ],
      "name": "ChainlinkRequested",
      "type": "event"
    },
    {
      "anonymous": false,
      "inputs": [
        {
          "indexed": true,
          "name": "id",
          "type": "bytes32"
        }
      ],
      "name": "ChainlinkFulfilled",
      "type": "event"
    },
    {
      "anonymous": false,
      "inputs": [
        {
          "indexed": true,
          "name": "id",
          "type": "bytes32"
        }
      ],
      "name": "ChainlinkCancelled",
      "type": "event"
    },
    {
      "constant": true,
      "inputs": [],
      "name": "isActive",
      "outputs": [
        {
          "name": "",
          "type": "bool"
        }
      ],
      "payable": false,
      "stateMutability": "view",
      "type": "function"
    },
    {
      "constant": true,
      "inputs": [
        {
          "name": "_token",
          "type": "address"
        }
      ],
      "name": "balance",
      "outputs": [
        {
          "name": "",
          "type": "uint256"
        }
      ],
      "payable": false,
      "stateMutability": "view",
      "type": "function"
    },
    {
      "constant": true,
      "inputs": [],
      "name": "isBeneficiary",
      "outputs": [
        {
          "name": "",
          "type": "bool"
        }
      ],
      "payable": false,
      "stateMutability": "view",
      "type": "function"
    },
    {
      "constant": true,
      "inputs": [],
      "name": "details",
      "outputs": [
        {
          "name": "",
          "type": "address"
        },
        {
          "name": "",
          "type": "uint256"
        },
        {
          "name": "",
          "type": "uint256"
        },
        {
          "name": "",
          "type": "uint256"
        },
        {
          "name": "",
          "type": "uint256"
        },
        {
          "name": "",
          "type": "uint256"
        }
      ],
      "payable": false,
      "stateMutability": "view",
      "type": "function"
    },
    {
      "constant": true,
      "inputs": [],
      "name": "getChainlinkToken",
      "outputs": [
        {
          "name": "",
          "type": "address"
        }
      ],
      "payable": false,
      "stateMutability": "view",
      "type": "function"
    },
    {
      "constant": false,
      "inputs": [
        {
          "name": "_value",
          "type": "uint256"
        }
      ],
      "name": "deposit",
      "outputs": [],
      "payable": true,
      "stateMutability": "payable",
      "type": "function"
    },
    {
      "constant": false,
      "inputs": [
        {
          "name": "_value",
          "type": "uint256"
        },
        {
          "name": "_oracle",
          "type": "address"
        },
        {
          "name": "_jobId",
          "type": "bytes32"
        },
        {
          "name": "_sym",
          "type": "string"
        },
        {
          "name": "_market",
          "type": "string"
        },
        {
          "name": "_oraclePayment",
          "type": "uint256"
        }
      ],
      "name": "withdraw",
      "outputs": [],
      "payable": false,
      "stateMutability": "nonpayable",
      "type": "function"
    },
    {
      "constant": false,
      "inputs": [
        {
          "name": "_to",
          "type": "address"
        },
        {
          "name": "_value",
          "type": "uint256"
        }
      ],
      "name": "transferFromReserve",
      "outputs": [],
      "payable": false,
      "stateMutability": "nonpayable",
      "type": "function"
    },
    {
      "constant": false,
      "inputs": [
        {
          "name": "_value",
          "type": "uint256"
        }
      ],
      "name": "earn",
      "outputs": [],
      "payable": false,
      "stateMutability": "nonpayable",
      "type": "function"
    },
    {
      "constant": false,
      "inputs": [
        {
          "name": "_newPeriod",
          "type": "uint256"
        }
      ],
      "name": "extendLockingPeriod",
      "outputs": [],
      "payable": false,
      "stateMutability": "nonpayable",
      "type": "function"
    },
    {
      "constant": false,
      "inputs": [
        {
          "name": "_oracle",
          "type": "address"
        },
        {
          "name": "_jobId",
          "type": "bytes32"
        },
        {
          "name": "_sym",
          "type": "string"
        },
        {
          "name": "_market",
          "type": "string"
        },
        {
          "name": "_oraclePayment",
          "type": "uint256"
        }
      ],
      "name": "requestAssetPrice",
      "outputs": [],
      "payable": false,
      "stateMutability": "nonpayable",
      "type": "function"
    },
    {
      "constant": false,
      "inputs": [
        {
          "name": "_requestId",
          "type": "bytes32"
        },
        {
          "name": "_price",
          "type": "uint256"
        }
      ],
      "name": "fulfill",
      "outputs": [],
      "payable": false,
      "stateMutability": "nonpayable",
      "type": "function"
    },
    {
      "constant": false,
      "inputs": [],
      "name": "withdrawLink",
      "outputs": [],
      "payable": false,
      "stateMutability": "nonpayable",
      "type": "function"
    }
  ],
  "bytecode": "0x608060405260016004556012805461ff0019166101001790553480156200002557600080fd5b5060405161010080620029ce83398101806040526101008110156200004957600080fd5b508051602082015160408301516060840151608085015160a086015160c087015160e09097015195969495939492939192909185876001600160a01b0382161515620000e1576040517f08c379a0000000000000000000000000000000000000000000000000000000008152600401808060200182810382526041815260200180620029666041913960600191505060405180910390fd5b6001600160a01b038116151562000144576040517f08c379a00000000000000000000000000000000000000000000000000000000081526004018080602001828103825260398152602001806200292d6039913960400191505060405180910390fd5b600680546001600160a01b038085166001600160a01b03199283161790925560078054848416921691909117908190556040519116906000907fdd02a698b84b4fb5f964b0fff14610c98b37374dca4ecccc6f323e825b11d38f908290a35050428311620001fe576040517f08c379a0000000000000000000000000000000000000000000000000000000008152600401808060200182810382526032815260200180620028fb6032913960400191505060405180910390fd5b81151562000258576040517f08c379a0000000000000000000000000000000000000000000000000000000008152600401808060200182810382526027815260200180620029a76027913960400191505060405180910390fd5b6001600160a01b03881615156200027f57620002796200033260201b60201c565b62000290565b6200029088620003c160201b60201c565b600880546001600160a01b038087166001600160a01b0319928316179092556009805492881692909116919091179055600a839055600b829055600060ff82166001811115620002dc57fe5b90506000816001811115620002ed57fe5b1415620002ff576012805460ff191690555b60018160018111156200030e57fe5b141562000323576012805460ff191660011790555b505050505050505050620003e3565b620003bf73c89bd4e1632d3a43cb03aaad5262cbe4038bc5716001600160a01b03166338cc48316040518163ffffffff1660e01b815260040160206040518083038186803b1580156200038457600080fd5b505afa15801562000399573d6000803e3d6000fd5b505050506040513d6020811015620003b057600080fd5b5051620003c1602090811b901c565b565b600280546001600160a01b0319166001600160a01b0392909216919091179055565b61250880620003f36000396000f3fe6080604052600436106101cd5760003560e01c806376fcfa6d116100f7578063b6b55f2511610095578063e3d670d711610064578063e3d670d7146106fa578063e65a01171461072d578063ed74770f14610757578063eef49ee31461076c576101cd565b8063b6b55f251461057b578063b745b94914610267578063d6f1926214610598578063d7ecdb1b146105ad576101cd565b80639d1e4a04116100d15780639d1e4a0414610509578063a04e9e7c1461051e578063a4efc58014610551578063ad7a672f14610566576101cd565b806376fcfa6d146104ca5780637b70209f146104df5780638dc654a2146104f4576101cd565b80633ff7f9131161016f578063550066d51161013e578063550066d514610427578063565974d31461044e5780635b8bec55146104a0578063668aa824146104b5576101cd565b80633ff7f913146102d15780634357855e146102fb57806348a0c8dd1461032b57806353eda08814610340576101cd565b806334a48b7a116101ab57806334a48b7a1461026757806337263e131461027c57806338af3eed146102a757806338d52e0f146102bc576101cd565b80631498207e146101d2578063165d35e11461020d57806322f3e2d41461023e575b600080fd5b3480156101de57600080fd5b5061020b600480360360408110156101f557600080fd5b506001600160a01b038135169060200135610781565b005b34801561021957600080fd5b50610222610927565b604080516001600160a01b039092168252519081900360200190f35b34801561024a57600080fd5b50610253610936565b604080519115158252519081900360200190f35b34801561027357600080fd5b50610253610953565b34801561028857600080fd5b50610291610964565b6040805160ff9092168252519081900360200190f35b3480156102b357600080fd5b5061022261096d565b3480156102c857600080fd5b5061022261097c565b3480156102dd57600080fd5b5061020b600480360360208110156102f457600080fd5b503561098b565b34801561030757600080fd5b5061020b6004803603604081101561031e57600080fd5b5080359060200135610a1b565b34801561033757600080fd5b50610253610b69565b34801561034c57600080fd5b5061020b600480360360c081101561036357600080fd5b8135916001600160a01b036020820135169160408201359190810190608081016060820135600160201b81111561039957600080fd5b8201836020820111156103ab57600080fd5b803590602001918460018302840111600160201b831117156103cc57600080fd5b919390929091602081019035600160201b8111156103e957600080fd5b8201836020820111156103fb57600080fd5b803590602001918460018302840111600160201b8311171561041c57600080fd5b919350915035610b77565b34801561043357600080fd5b5061043c610c6e565b60408051918252519081900360200190f35b34801561045a57600080fd5b50610463610c74565b604080516001600160a01b0390971687526020870195909552858501939093526060850191909152608084015260a0830152519081900360c00190f35b3480156104ac57600080fd5b50610222610c9a565b3480156104c157600080fd5b5061043c610ca9565b3480156104d657600080fd5b5061043c610caf565b3480156104eb57600080fd5b50610253610cb5565b34801561050057600080fd5b5061020b610cc5565b34801561051557600080fd5b50610253610e6a565b34801561052a57600080fd5b5061020b6004803603602081101561054157600080fd5b50356001600160a01b0316610e7b565b34801561055d57600080fd5b5061043c610ecc565b34801561057257600080fd5b5061043c610ed2565b61020b6004803603602081101561059157600080fd5b5035610ed8565b3480156105a457600080fd5b5061043c610fc2565b3480156105b957600080fd5b5061020b600480360360a08110156105d057600080fd5b6001600160a01b0382351691602081013591810190606081016040820135600160201b8111156105ff57600080fd5b82018360208201111561061157600080fd5b803590602001918460018302840111600160201b8311171561063257600080fd5b91908080601f0160208091040260200160405190810160405280939291908181526020018383808284376000920191909152509295949360208101935035915050600160201b81111561068457600080fd5b82018360208201111561069657600080fd5b803590602001918460018302840111600160201b831117156106b757600080fd5b91908080601f0160208091040260200160405190810160405280939291908181526020018383808284376000920191909152509295505091359250610fc8915050565b34801561070657600080fd5b5061043c6004803603602081101561071d57600080fd5b50356001600160a01b031661122b565b34801561073957600080fd5b5061020b6004803603602081101561075057600080fd5b50356112c2565b34801561076357600080fd5b5061022261132c565b34801561077857600080fd5b5061043c61133b565b610789610e6a565b15156107c957604051600160e51b62461bcd0281526004018080602001828103825260408152602001806123126040913960400191505060405180910390fd5b600a54421061080c57604051600160e51b62461bcd0281526004018080602001828103825260248152602001806124316024913960400191505060405180910390fd5b6008546001600160a01b0316151561089d57303181111561086157604051600160e51b62461bcd0281526004018080602001828103825260268152602001806123886026913960400191505060405180910390fd5b6040516001600160a01b0383169082156108fc029083906000818181858888f19350505050158015610897573d6000803e3d6000fd5b50610923565b60085460408051600160e01b63a9059cbb0281526001600160a01b038581166004830152602482018590529151919092169163a9059cbb9160448083019260209291908290030181600087803b1580156108f657600080fd5b505af115801561090a573d6000803e3d6000fd5b505050506040513d602081101561092057600080fd5b50505b5050565b6000610931611341565b905090565b601254600090610100900460ff1680610931575050600c54151590565b6007546001600160a01b0316331490565b60125460ff1681565b6009546001600160a01b031681565b6008546001600160a01b031681565b610993610953565b15156109d357604051600160e51b62461bcd0281526004018080602001828103825260368152602001806123526036913960400191505060405180910390fd5b600a548111610a1657604051600160e51b62461bcd02815260040180806020018281038252602c8152602001806123d2602c913960400191505060405180910390fd5b600a55565b60008281526005602052604090205482906001600160a01b03163314610a7557604051600160e51b62461bcd0281526004018080602001828103825260288152602001806124556028913960400191505060405180910390fd5b60008181526005602052604080822080546001600160a01b03191690555182917f7cc135e0cebb02c3480ae5d74d377283180a2601f8f644edf7987b009316c63a91a2600f8290554260105560125460ff161515610aff57600b54600f5411610afa57610afa610ae3610c9a565b6008546011546001600160a01b0390911690611350565b610b15565b600b54600f5410610b1557610b15610ae3610c9a565b6000601155600b54600f5460125460408051938452602084019290925260ff1682820152517f049bfbfde0309d523311e3ae656abf430a3a28b5af57ba8771329b74fa4f97339181900360600190a1505050565b601254610100900460ff1681565b610b7f610953565b1515610bbf57604051600160e51b62461bcd0281526004018080602001828103825260368152602001806123526036913960400191505060405180910390fd5b600a54421115610be657600854610be19033906001600160a01b03168a611350565b610c64565b87601181905550610c64878787878080601f01602080910402602001604051908101604052809392919081815260200183838082843760009201919091525050604080516020601f8b018190048102820181019092528981529250899150889081908401838280828437600092019190915250889250610fc8915050565b5050505050505050565b600a5481565b600854600a54600b54600c54600d54600e546001600160a01b0390951694909192939495565b6007546001600160a01b031690565b600f5481565b600b5481565b6009546001600160a01b03161590565b610ccd610953565b1515610d0d57604051600160e51b62461bcd0281526004018080602001828103825260368152602001806123526036913960400191505060405180910390fd5b6000610d17611341565b60408051600160e01b6370a0823102815230600482015290519192506001600160a01b0383169163a9059cbb91339184916370a082319160248083019260209291908290030181600087803b158015610d6f57600080fd5b505af1158015610d83573d6000803e3d6000fd5b505050506040513d6020811015610d9957600080fd5b50516040805163ffffffff851660e01b81526001600160a01b03909316600484015260248301919091525160448083019260209291908290030181600087803b158015610de557600080fd5b505af1158015610df9573d6000803e3d6000fd5b505050506040513d6020811015610e0f57600080fd5b50511515610e675760408051600160e51b62461bcd02815260206004820152601260248201527f556e61626c6520746f207472616e736665720000000000000000000000000000604482015290519081900360640190fd5b50565b6006546001600160a01b0316331490565b610e83610953565b1515610ec357604051600160e51b62461bcd02815260040180806020018281038252603b81526020018061222a603b913960400191505060405180910390fd5b610e67816114c3565b60105481565b600c5481565b610ee0610953565b1515610f2057604051600160e51b62461bcd0281526004018080602001828103825260368152602001806123526036913960400191505060405180910390fd5b801515610f6157604051600160e51b62461bcd0281526004018080602001828103825260368152602001806124a76036913960400191505060405180910390fd5b601254610100900460ff161515610fac57604051600160e51b62461bcd0281526004018080602001828103825260338152602001806123fe6033913960400191505060405180910390fd5b600854610e67906001600160a01b031682611569565b600e5481565b33301480610fd95750610fd9610953565b151561101957604051600160e51b62461bcd02815260040180806020018281038252603a81526020018061228b603a913960400191505060405180910390fd5b6110216121da565b6110368530600160e11b6321abc2af0261167f565b6040805180820190915260038152600160e81b6273796d0260208201529091506110689082908663ffffffff6116aa16565b6040805180820190915260078152600160ca1b6618dbdb9d995c9d02602082015261109b9082908563ffffffff6116aa16565b60408051600580825260c08201909252606091816020015b60608152602001906001900390816110b3579050509050604051806040016040528060048152602001600160e01b6364617461028152508160008151811015156110f957fe5b60209081029091010152805185908290600190811061111457fe5b90602001906020020181905250604051806040016040528060058152602001600160d81b6471756f74650281525081600281518110151561115157fe5b60209081029091010152805184908290600390811061116c57fe5b90602001906020020181905250604051806040016040528060058152602001600160d81b647072696365028152508160048151811015156111a957fe5b906020019060200201819052506111ee604051806040016040528060088152602001600160c31b670c6dee0f2a0c2e8d0281525082846116d99092919063ffffffff16565b6040805180820190915260058152600160d81b6474696d6573026020820152611220908390606463ffffffff61174916565b610c64878385611773565b60006001600160a01b0382161515611245575030316112bd565b60408051600160e01b6370a0823102815230600482015290516001600160a01b038416916370a08231916024808301926020929190829003018186803b15801561128e57600080fd5b505afa1580156112a2573d6000803e3d6000fd5b505050506040513d60208110156112b857600080fd5b505190505b919050565b6112ca610e6a565b151561130a57604051600160e51b62461bcd0281526004018080602001828103825260408152602001806123126040913960400191505060405180910390fd5b611316600e548261194f565b600e55600c54611326908261194f565b600c5550565b6006546001600160a01b031690565b600d5481565b6002546001600160a01b031690565b6001600160a01b03821615156113df5730318111156113a357604051600160e51b62461bcd0281526004018080602001828103825260268152602001806123886026913960400191505060405180910390fd5b6040516001600160a01b0384169082156108fc029083906000818181858888f193505050501580156113d9573d6000803e3d6000fd5b5061146c565b816001600160a01b031663a9059cbb84836040518363ffffffff1660e01b815260040180836001600160a01b03166001600160a01b0316815260200182815260200192505050602060405180830381600087803b15801561143f57600080fd5b505af1158015611453573d6000803e3d6000fd5b505050506040513d602081101561146957600080fd5b50505b611478600c54826119b5565b600c556040805182815290516001600160a01b0380861692908516917f6a59b575a9d99916495f3a7e121eb0ecd2ae0f0ae7fb5a76cb3e35d583f0ed589181900360200190a3505050565b6001600160a01b038116151561150d57604051600160e51b62461bcd0281526004018080602001828103825260268152602001806122656026913960400191505060405180910390fd5b6007546040516001600160a01b038084169216907fdd02a698b84b4fb5f964b0fff14610c98b37374dca4ecccc6f323e825b11d38f90600090a3600780546001600160a01b0319166001600160a01b0392909216919091179055565b8015156115aa57604051600160e51b62461bcd02815260040180806020018281038252602a8152602001806122c5602a913960400191505060405180910390fd5b6001600160a01b0382161515611600573481146115fb57604051600160e51b62461bcd0281526004018080602001828103825260248152602001806123ae6024913960400191505060405180910390fd5b61161b565b61161b6001600160a01b03831633308463ffffffff6119f716565b6012805461ff0019169055600d54611633908261194f565b600d819055600c5560408051828152905133916001600160a01b038516917fed6213b478c3e842d868cfacb97c58fc59b0c882ce4794854dfd1edc60c6f6e99181900360200190a35050565b6116876121da565b61168f6121da565b6116a18186868663ffffffff611a5416565b95945050505050565b60808301516116bf908363ffffffff611a9116565b60808301516116d4908263ffffffff611a9116565b505050565b60808301516116ee908363ffffffff611a9116565b6116fb8360800151611aae565b60005b815181101561173b57611733828281518110151561171857fe5b6020908102909101015160808601519063ffffffff611a9116565b6001016116fe565b506116d48360800151611ab9565b608083015161175e908363ffffffff611a9116565b60808301516116d4908263ffffffff611ac416565b6004546040805130606090811b60208084019190915260348084018690528451808503909101815260549093018452825192810192909220908601939093526000838152600590915281812080546001600160a01b0319166001600160a01b038816179055905182917fb5e6e01e79f91267dc17b4e6314d5d4d03593d2ceee0fbb452b750bd70ea5af991a26002546001600160a01b0316634000aea0858461181b87611aed565b6040518463ffffffff1660e01b815260040180846001600160a01b03166001600160a01b0316815260200183815260200180602001828103825283818151815260200191508051906020019080838360005b8381101561188557818101518382015260200161186d565b50505050905090810190601f1680156118b25780820380516001836020036101000a031916815260200191505b50945050505050602060405180830381600087803b1580156118d357600080fd5b505af11580156118e7573d6000803e3d6000fd5b505050506040513d60208110156118fd57600080fd5b5051151561193f57604051600160e51b62461bcd0281526004018080602001828103825260238152602001806122ef6023913960400191505060405180910390fd5b6004805460010190559392505050565b6000828201838110156119ac5760408051600160e51b62461bcd02815260206004820152601b60248201527f536166654d6174683a206164646974696f6e206f766572666c6f770000000000604482015290519081900360640190fd5b90505b92915050565b60006119ac83836040518060400160405280601e81526020017f536166654d6174683a207375627472616374696f6e206f766572666c6f770000815250611c19565b604080516001600160a01b0385811660248301528416604482015260648082018490528251808303909101815260849091019091526020810180516001600160e01b0316600160e01b6323b872dd02179052610920908590611cb3565b611a5c6121da565b611a6c8560800151610100611e7a565b50509183526001600160a01b031660208301526001600160e01b031916604082015290565b611a9e8260038351611eb4565b6116d4828263ffffffff611fb716565b610e67816004611fd1565b610e67816007611fd1565b60008112611add57611ad882600083611eb4565b610923565b6109238260018360001903611eb4565b8051602080830151604080850151606086810151608088015151935160006024820181815260448301829052606483018a90526001600160a01b03881660848401526001600160e01b0319861660a484015260c48301849052600160e48401819052610100610104850190815288516101248601528851969b600160e11b6320214ca3029b949a8b9a91999098909796939591949361014401918501908083838e5b83811015611ba7578181015183820152602001611b8f565b50505050905090810190601f168015611bd45780820380516001836020036101000a031916815260200191505b5060408051601f198184030181529190526020810180516001600160e01b03166001600160e01b0319909d169c909c17909b5250989950505050505050505050919050565b60008184841115611cab57604051600160e51b62461bcd0281526004018080602001828103825283818151815260200191508051906020019080838360005b83811015611c70578181015183820152602001611c58565b50505050905090810190601f168015611c9d5780820380516001836020036101000a031916815260200191505b509250505060405180910390fd5b505050900390565b611cc5826001600160a01b0316611fea565b1515611d1b5760408051600160e51b62461bcd02815260206004820152601f60248201527f5361666545524332303a2063616c6c20746f206e6f6e2d636f6e747261637400604482015290519081900360640190fd5b60006060836001600160a01b0316836040518082805190602001908083835b60208310611d595780518252601f199092019160209182019101611d3a565b6001836020036101000a0380198251168184511680821785525050505050509050019150506000604051808303816000865af19150503d8060008114611dbb576040519150601f19603f3d011682016040523d82523d6000602084013e611dc0565b606091505b5091509150811515611e1c5760408051600160e51b62461bcd02815260206004820181905260248201527f5361666545524332303a206c6f772d6c6576656c2063616c6c206661696c6564604482015290519081900360640190fd5b80511561092057808060200190516020811015611e3857600080fd5b5051151561092057604051600160e51b62461bcd02815260040180806020018281038252602a81526020018061247d602a913960400191505060405180910390fd5b611e8261220f565b6020820615611e975760208206602003820191505b506020828101829052604080518085526000815290920101905290565b60178111611edc57611ed68360ff80851660051b16831763ffffffff61202616565b506116d4565b60ff8111611f1057611efd83601860ff851660051b1763ffffffff61202616565b50611ed68382600163ffffffff61203e16565b61ffff8111611f4557611f3283601960ff851660051b1763ffffffff61202616565b50611ed68382600263ffffffff61203e16565b63ffffffff8111611f7c57611f6983601a60ff851660051b1763ffffffff61202616565b50611ed68382600463ffffffff61203e16565b67ffffffffffffffff81116116d457611fa483601b60ff851660051b1763ffffffff61202616565b506109208382600863ffffffff61203e16565b611fbf61220f565b6119ac83846000015151848551612057565b6116d482601f60ff841660051b1763ffffffff61202616565b6000813f7fc5d2460186f7233c927e7db2dcc703c0e500b653ca82273b7bfad8045d85a470811580159061201e5750808214155b949350505050565b61202e61220f565b6119ac8384600001515184612103565b61204661220f565b61201e84856000015151858561214e565b61205f61220f565b825182111561206d57600080fd5b84602001518285011115612097576120978561208f87602001518786016121ac565b6002026121c3565b6000808651805187602083010193508088870111156120b65787860182525b505050602084015b602084106120dd5780518252601f1990930192602091820191016120be565b51815160001960208690036101000a019081169019919091161790525083949350505050565b61210b61220f565b60208401518310612127576121278485602001516002026121c3565b8351805160208583010184815381861415612143576001820183525b509495945050505050565b61215661220f565b8460200151848301111561217357612173858584016002026121c3565b60006001836101000a03905085518386820101858319825116178152815185880111156121a05784870182525b50959695505050505050565b6000818311156121bd5750816119af565b50919050565b81516121cf8383611e7a565b506109208382611fb7565b6040805160c08101825260008082526020820181905291810182905260608101919091526080810161220a61220f565b905290565b60405180604001604052806060815260200160008152509056fe4c69717569646974795265736572766553746174653a2063616c6c6572206973206e6f7420746865206c69717569646974792070726f76696465724f776e61626c653a206e6577206f776e657220697320746865207a65726f20616464726573734c6971756964697479526573657276653a206e6f7420617574686f72697a656420746f2063616c6c2070726963652066656564206f7261636c654c6971756964697479526573657276653a2063616e206e6f74206465706f736974203020616d6f756e74756e61626c6520746f207472616e73666572416e6443616c6c20746f206f7261636c654c69717569646974795265736572766553746174653a2063616c6c6572206973206e6f742074686520416c6b656d69204e6574776f726b20636f6e74726163744c69717569646974795265736572766553746174653a2063616c6c657220646f6573206e6f742068617665207065726d697373696f6e4c6971756964697479526573657276653a20696e73756666696369656e742062616c616e63654c6971756964697479526573657276653a204554482076616c7565206d69736d617463684c6971756964697479526573657276653a20696e76616c6964206e6577206c6f636b696e6720706572696f644c6971756964697479526573657276653a2063616e206e6f74206465706f73697420696e746f207468697320726573657276654c6971756964697479526573657276653a2066756e64732061726520756e6c6f636b6564536f75726365206d75737420626520746865206f7261636c65206f662074686520726571756573745361666545524332303a204552433230206f7065726174696f6e20646964206e6f7420737563636565644c6971756964697479526573657276653a2063616e206e6f74206465706f73697420616d6f756e7420657175616c20746f207a65726fa165627a7a723058205c912fbe03fedd31d0c6371cbbaecc4917b3307b4893a3ede2ab1f3fd47a928e00294c6971756964697479526573657276653a20696e76616c6964206c6f636b696e6720706572696f642074696d657374616d704c69717569646974795265736572766553746174653a20696e76616c6964206c69717569646974792070726f766964657220616464726573734c69717569646974795265736572766553746174653a20696e76616c6964206c6971756964697479206d616e6167657220636f6e747261637420616464726573734c6971756964697479526573657276653a20696e76616c6964207072696365206c6f636b6f7574",
  "source": "pragma solidity ^0.5.0;\n\nimport \"@openzeppelin/contracts/token/ERC20/ERC20.sol\";\nimport \"@openzeppelin/contracts/token/ERC20/SafeERC20.sol\";\nimport \"@openzeppelin/contracts/math/SafeMath.sol\";\nimport \"chainlinkv0.5/contracts/ChainlinkClient.sol\";\nimport \"./LiquidityReserveState.sol\";\n\n/**\n  * @title LiquidityReserve\n  * @notice Base layer functionality for the Liquidity Reserve\n  */\ncontract LiquidityReserve is ChainlinkClient, LiquidityReserveState {\n    using SafeERC20 for ERC20;\n    using SafeMath for uint256;\n\n    address internal constant ETH = address(0);\n\n    address public asset;\n    address public beneficiary;\n    uint256 public lockingPeriod;\n    uint256 public lockingPrice;\n    uint256 public totalBalance;\n    uint256 public deposited;\n    uint256 public earned;\n    uint256 public oraclePrice;\n    uint256 public lastPriceCheck;\n    uint256 internal _amountToWithdraw;\n    uint8 public lockingPricePosition; // 0=below the lockingPrice; 1=above the lockingPrice\n    bool public isDepositable = true;\n\n    /**\n     * @notice Price lockout actions\n     */\n    enum PriceLockout {BELOW, ABOVE}\n\n    event ReserveDeposit(\n        address indexed token,\n        address indexed sender,\n        uint256 amount\n    );\n    event ReserveWithdraw(\n        address indexed token,\n        address indexed withdrawer,\n        uint256 amount\n    );\n    event ReserveApprove(\n        address indexed token,\n        address indexed to,\n        uint256 amount\n    );\n    event ReserveTransfer(\n        address indexed token,\n        address indexed to,\n        uint256 amount\n    );\n    event PriceUnlock(\n        uint256 lockingPrice,\n        uint256 oraclePrice,\n        uint256 lockingPricePosition\n    );\n\n    /**\n     * @notice constructor\n     * @param _liquidityProvider liquidity provider address\n     * @param _alkemiNetwork Alkemi Network contract address\n     * @param _beneficiary earnings beneficiary (address(0) if the earnings goes to the current reserve address)\n     * @param _lockingPeriod funds locking period\n     * @param _lockingPrice release funds when hitting this price\n     * @param _lockingPricePosition locking price position\n     */\n    constructor(\n        address _link,\n        address _liquidityProvider,\n        address _alkemiNetwork,\n        address _beneficiary,\n        address _asset,\n        uint256 _lockingPeriod,\n        uint256 _lockingPrice,\n        uint8 _lockingPricePosition\n    ) public LiquidityReserveState(_alkemiNetwork, _liquidityProvider) {\n        require(\n            _lockingPeriod > now,\n            \"LiquidityReserve: invalid locking period timestamp\"\n        );\n        require(_lockingPrice > 0, \"LiquidityReserve: invalid price lockout\");\n\n        // Set the address for the LINK token for the network.\n        if (_link == address(0)) {\n            // Useful for deploying to public networks.\n            setPublicChainlinkToken();\n        } else {\n            // Useful if you're deploying to a local network.\n            setChainlinkToken(_link);\n        }\n\n        asset = _asset;\n        beneficiary = _beneficiary;\n        lockingPeriod = _lockingPeriod;\n        lockingPrice = _lockingPrice;\n\n        // if _lockingPricePosition=0 (PriceLockout.BELOW) then unlock funds when oracle price is below lockingPrice\n        // if _lockingPricePosition=1 (PriceLockout.ABOVE) then unlock funds when oracle price is above lockingPrice\n        PriceLockout priceLockout = PriceLockout(_lockingPricePosition);\n        if (priceLockout == PriceLockout.BELOW) {\n            lockingPricePosition = 0;\n        }\n        if (priceLockout == PriceLockout.ABOVE) {\n            lockingPricePosition = 1;\n        }\n    }\n\n    /**\n     * @notice check if reserve is active\n     */\n    function isActive() external view returns (bool) {\n        return isDepositable || totalBalance > 0;\n    }\n\n    /**\n     * @notice Get liquidity reserve of a specific token\n     * @param _token token address\n     * @return liquidity reserve token balance\n     */\n    function balance(address _token) public view returns (uint256) {\n        if (_token == ETH) {\n            return address(this).balance;\n        } else {\n            return ERC20(_token).balanceOf(address(this));\n        }\n    }\n\n    /**\n     * @notice Returns true if the beneficiary is the current reserve.\n     */\n    function isBeneficiary() public view returns (bool) {\n        return beneficiary == address(0);\n    }\n\n    /**\n     * @notice Get reserve details\n     * @return asset address, locking period, locking price, total balance, deposited amount, earned amount\n     */\n    function details()\n        public\n        view\n        returns (address, uint256, uint256, uint256, uint256, uint256)\n    {\n        return (\n            asset,\n            lockingPeriod,\n            lockingPrice,\n            totalBalance,\n            deposited,\n            earned\n        );\n    }\n\n    /**\n     * @notice Returns the address of the LINK token\n     * @dev This is the public implementation for chainlinkTokenAddress, which is\n     * an internal method of the ChainlinkClient contract\n     */\n    function getChainlinkToken() public view returns (address) {\n        return chainlinkTokenAddress();\n    }\n\n    /**\n     * @notice Deposit `_value` to the reserve\n     * @dev this function can only be called by the liquidity provider or by the settlement contract\n     * @param _value Amount of tokens being transferred\n     */\n    function deposit(uint256 _value) external payable onlyPermissioned {\n        require(\n            _value > 0,\n            \"LiquidityReserve: can not deposit amount equal to zero\"\n        );\n        require(\n            isDepositable,\n            \"LiquidityReserve: can not deposit into this reserve\"\n        );\n        _deposit(asset, _value);\n    }\n\n    /**\n     * @notice Withdraw `_value` from the reserve\n     * @dev this function can only be called by the liquidity provider\n     * @param _value Amount of tokens being transferred\n     * @param _oracle oracle address\n     * @param _jobId oracle job id\n     * @param _sym asset symbol\n     * @param _market market currency needed\n     * @param _oraclePayment amount of Link tokens for node\n     */\n    function withdraw(\n        uint256 _value,\n        address _oracle,\n        bytes32 _jobId,\n        string calldata _sym,\n        string calldata _market,\n        uint256 _oraclePayment\n    ) external onlyPermissioned {\n        if (now > lockingPeriod) {\n            _withdraw(msg.sender, asset, _value);\n        } else {\n            _amountToWithdraw = _value;\n            requestAssetPrice(_oracle, _jobId, _sym, _market, _oraclePayment);\n        }\n    }\n\n    /**\n     * @notice Transfer asset from reserve to a specific address\n     * @dev can only be called from the Alkemi Network contract when asset is locked\n     * @param _to recepient address\n     * @param _value value to send\n     */\n    function transferFromReserve(address payable _to, uint256 _value)\n        external\n        onlyAlkemi()\n    {\n        require(now < lockingPeriod, \"LiquidityReserve: funds are unlocked\");\n\n        if (asset == ETH) {\n            require(\n                address(this).balance >= _value,\n                \"LiquidityReserve: insufficient balance\"\n            );\n            _to.transfer(_value);\n        } else {\n            ERC20(asset).transfer(_to, _value);\n        }\n    }\n\n    /**\n     * @notice increment reserve earning\n     * @dev can only be called from Alkemi Network contract\n     */\n    function earn(uint256 _value) external onlyAlkemi() {\n        earned = SafeMath.add(earned, _value);\n        totalBalance = SafeMath.add(totalBalance, _value);\n    }\n\n    /**\n     * @notice extend reserve locking period\n     */\n    function extendLockingPeriod(uint256 _newPeriod) external onlyPermissioned {\n        require(\n            _newPeriod > lockingPeriod,\n            \"LiquidityReserve: invalid new locking period\"\n        );\n\n        lockingPeriod = _newPeriod;\n    }\n\n    /**\n     * @notice send request to Chainlink nodes to get asset price\n     * @param _oracle oracle address\n     * @param _jobId oracle job id\n     * @param _sym asset symbol\n     * @param _market market currency needed\n     * @param _oraclePayment amount of Link tokens for node\n     */\n    function requestAssetPrice(\n        address _oracle,\n        bytes32 _jobId,\n        string memory _sym,\n        string memory _market,\n        uint256 _oraclePayment\n    ) public {\n        require(\n            (msg.sender == address(this)) || havePermission(),\n            \"LiquidityReserve: not authorized to call price feed oracle\"\n        );\n\n        Chainlink.Request memory req = buildChainlinkRequest(\n            _jobId,\n            address(this),\n            this.fulfill.selector\n        );\n        req.add(\"sym\", _sym);\n        req.add(\"convert\", _market);\n        string[] memory path = new string[](5);\n        path[0] = \"data\";\n        path[1] = _sym;\n        path[2] = \"quote\";\n        path[3] = _market;\n        path[4] = \"price\";\n        req.addStringArray(\"copyPath\", path);\n        req.addInt(\"times\", 100);\n        sendChainlinkRequestTo(_oracle, req, _oraclePayment);\n    }\n\n    /**\n     * @notice update asset price and process withdraw\n     * @dev can only be called by Chainlink oracles when request get fulfilled\n     * @param _requestId chainlink request id\n     * @param _price returned price\n     */\n    function fulfill(bytes32 _requestId, uint256 _price)\n        public\n        recordChainlinkFulfillment(_requestId)\n    {\n        oraclePrice = _price;\n        lastPriceCheck = now;\n\n        if (lockingPricePosition == 0) {\n            if (oraclePrice <= lockingPrice)\n                _withdraw(\n                    address(uint160(liquidityProvider())),\n                    asset,\n                    _amountToWithdraw\n                );\n        } else {\n            if (oraclePrice >= lockingPrice)\n                _withdraw(\n                    address(uint160(liquidityProvider())),\n                    asset,\n                    _amountToWithdraw\n                );\n        }\n\n        _amountToWithdraw = 0;\n\n        emit PriceUnlock(lockingPrice, oraclePrice, lockingPricePosition);\n    }\n\n    /**\n     * @notice Allows the owner to withdraw any LINK balance on the contract\n     */\n    function withdrawLink() public onlyPermissioned {\n        LinkTokenInterface link = LinkTokenInterface(chainlinkTokenAddress());\n        require(\n            link.transfer(msg.sender, link.balanceOf(address(this))),\n            \"Unable to transfer\"\n        );\n    }\n\n    function _deposit(address _token, uint256 _value) internal {\n        require(_value > 0, \"LiquidityReserve: can not deposit 0 amount\");\n\n        if (_token == ETH) {\n            // Deposit is implicit in this case\n            require(\n                msg.value == _value,\n                \"LiquidityReserve: ETH value mismatch\"\n            );\n        } else {\n            ERC20(_token).safeTransferFrom(msg.sender, address(this), _value);\n        }\n\n        isDepositable = false;\n        deposited = SafeMath.add(deposited, _value);\n        totalBalance = deposited;\n\n        emit ReserveDeposit(_token, msg.sender, _value);\n    }\n\n    function _withdraw(\n        address payable _recepient,\n        address _token,\n        uint256 _value\n    ) internal {\n        if (_token == ETH) {\n            require(\n                address(this).balance >= _value,\n                \"LiquidityReserve: insufficient balance\"\n            );\n            _recepient.transfer(_value);\n        } else {\n            ERC20(_token).transfer(_recepient, _value);\n        }\n\n        totalBalance = SafeMath.sub(totalBalance, _value);\n\n        emit ReserveWithdraw(_token, _recepient, _value);\n    }\n}\n",
  "sourcePath": "/Users/haythem96/Projects/Alkemi/alkemi-protocol/contracts/liquidity-reserve/LiquidityReserve.sol",
  "compiler": {
    "name": "solc",
    "version": "0.5.5+commit.47a71e8f.Emscripten.clang"
  },
  "schemaVersion": "3.0.21",
  "updatedAt": "2020-01-21T11:50:43.781Z",
  "devdoc": {
    "methods": {
      "alkemiNetwork()": {
        "details": "Returns the address of the Alkemi Network contract address."
      },
      "balance(address)": {
        "params": {
          "_token": "token address"
        },
        "return": "liquidity reserve token balance"
      },
      "constructor": {
        "params": {
          "_alkemiNetwork": "Alkemi Network contract address",
          "_beneficiary": "earnings beneficiary (address(0) if the earnings goes to the current reserve address)",
          "_liquidityProvider": "liquidity provider address",
          "_lockingPeriod": "funds locking period",
          "_lockingPrice": "release funds when hitting this price",
          "_lockingPricePosition": "locking price position"
        }
      },
      "deposit(uint256)": {
        "details": "this function can only be called by the liquidity provider or by the settlement contract",
        "params": {
          "_value": "Amount of tokens being transferred"
        }
      },
      "details()": {
        "return": "asset address, locking period, locking price, total balance, deposited amount, earned amount"
      },
      "earn(uint256)": {
        "details": "can only be called from Alkemi Network contract"
      },
      "fulfill(bytes32,uint256)": {
        "details": "can only be called by Chainlink oracles when request get fulfilled",
        "params": {
          "_price": "returned price",
          "_requestId": "chainlink request id"
        }
      },
      "getChainlinkToken()": {
        "details": "This is the public implementation for chainlinkTokenAddress, which is an internal method of the ChainlinkClient contract"
      },
      "havePermission()": {
        "details": "Returns true if the caller is the current liquidity provider"
      },
      "isAlkemiNetwork()": {
        "details": "Returns true if the caller is Alkemi Network contract."
      },
      "isLiquidityprovider()": {
        "details": "Returns true if the caller is the current liquidity provider."
      },
      "liquidityProvider()": {
        "details": "Returns the address of the current liquidity provider."
      },
      "requestAssetPrice(address,bytes32,string,string,uint256)": {
        "params": {
          "_jobId": "oracle job id",
          "_market": "market currency needed",
          "_oracle": "oracle address",
          "_oraclePayment": "amount of Link tokens for node",
          "_sym": "asset symbol"
        }
      },
      "transferFromReserve(address,uint256)": {
        "details": "can only be called from the Alkemi Network contract when asset is locked",
        "params": {
          "_to": "recepient address",
          "_value": "value to send"
        }
      },
      "transferLiquidityProvider(address)": {
        "details": "Transfers ownership of the contract to a new account (`newLiquidityprovider`). Can only be called by the current liquidity provider."
      },
      "withdraw(uint256,address,bytes32,string,string,uint256)": {
        "details": "this function can only be called by the liquidity provider",
        "params": {
          "_jobId": "oracle job id",
          "_market": "market currency needed",
          "_oracle": "oracle address",
          "_oraclePayment": "amount of Link tokens for node",
          "_sym": "asset symbol",
          "_value": "Amount of tokens being transferred"
        }
      }
    },
    "title": "LiquidityReserve"
  },
  "userdoc": {
    "methods": {
      "balance(address)": {
        "notice": "Get liquidity reserve of a specific token"
      },
      "constructor": "constructor",
      "deposit(uint256)": {
        "notice": "Deposit `_value` to the reserve"
      },
      "details()": {
        "notice": "Get reserve details"
      },
      "earn(uint256)": {
        "notice": "increment reserve earning"
      },
      "extendLockingPeriod(uint256)": {
        "notice": "extend reserve locking period"
      },
      "fulfill(bytes32,uint256)": {
        "notice": "update asset price and process withdraw"
      },
      "getChainlinkToken()": {
        "notice": "Returns the address of the LINK token"
      },
      "isActive()": {
        "notice": "check if reserve is active"
      },
      "isBeneficiary()": {
        "notice": "Returns true if the beneficiary is the current reserve."
      },
      "requestAssetPrice(address,bytes32,string,string,uint256)": {
        "notice": "send request to Chainlink nodes to get asset price"
      },
      "transferFromReserve(address,uint256)": {
        "notice": "Transfer asset from reserve to a specific address"
      },
      "withdraw(uint256,address,bytes32,string,string,uint256)": {
        "notice": "Withdraw `_value` from the reserve"
      },
      "withdrawLink()": {
        "notice": "Allows the owner to withdraw any LINK balance on the contract"
      }
    },
    "notice": "Base layer functionality for the Liquidity Reserve"
  }
}