{
  "contractName": "LiquidityReserve",
  "abi": [
    {
      "constant": true,
      "inputs": [],
      "name": "isLiquidityprovider",
      "outputs": [
        {
          "name": "",
          "type": "bool"
        }
      ],
      "payable": false,
      "stateMutability": "view",
      "type": "function"
    },
    {
      "constant": true,
      "inputs": [],
      "name": "lockingPricePosition",
      "outputs": [
        {
          "name": "",
          "type": "uint8"
        }
      ],
      "payable": false,
      "stateMutability": "view",
      "type": "function"
    },
    {
      "constant": true,
      "inputs": [],
      "name": "beneficiary",
      "outputs": [
        {
          "name": "",
          "type": "address"
        }
      ],
      "payable": false,
      "stateMutability": "view",
      "type": "function"
    },
    {
      "constant": true,
      "inputs": [],
      "name": "asset",
      "outputs": [
        {
          "name": "",
          "type": "address"
        }
      ],
      "payable": false,
      "stateMutability": "view",
      "type": "function"
    },
    {
      "constant": true,
      "inputs": [],
      "name": "isDepositable",
      "outputs": [
        {
          "name": "",
          "type": "bool"
        }
      ],
      "payable": false,
      "stateMutability": "view",
      "type": "function"
    },
    {
      "constant": true,
      "inputs": [],
      "name": "lockingPeriod",
      "outputs": [
        {
          "name": "",
          "type": "uint256"
        }
      ],
      "payable": false,
      "stateMutability": "view",
      "type": "function"
    },
    {
      "constant": true,
      "inputs": [],
      "name": "liquidityProvider",
      "outputs": [
        {
          "name": "",
          "type": "address"
        }
      ],
      "payable": false,
      "stateMutability": "view",
      "type": "function"
    },
    {
      "constant": true,
      "inputs": [],
      "name": "oraclePrice",
      "outputs": [
        {
          "name": "",
          "type": "uint256"
        }
      ],
      "payable": false,
      "stateMutability": "view",
      "type": "function"
    },
    {
      "constant": true,
      "inputs": [],
      "name": "lockingPrice",
      "outputs": [
        {
          "name": "",
          "type": "uint256"
        }
      ],
      "payable": false,
      "stateMutability": "view",
      "type": "function"
    },
    {
      "constant": true,
      "inputs": [],
      "name": "isAlkemiNetwork",
      "outputs": [
        {
          "name": "",
          "type": "bool"
        }
      ],
      "payable": false,
      "stateMutability": "view",
      "type": "function"
    },
    {
      "constant": false,
      "inputs": [
        {
          "name": "newLiquidityprovider",
          "type": "address"
        }
      ],
      "name": "transferLiquidityProvider",
      "outputs": [],
      "payable": false,
      "stateMutability": "nonpayable",
      "type": "function"
    },
    {
      "constant": true,
      "inputs": [],
      "name": "lastPriceCheck",
      "outputs": [
        {
          "name": "",
          "type": "uint256"
        }
      ],
      "payable": false,
      "stateMutability": "view",
      "type": "function"
    },
    {
      "constant": true,
      "inputs": [],
      "name": "totalBalance",
      "outputs": [
        {
          "name": "",
          "type": "uint256"
        }
      ],
      "payable": false,
      "stateMutability": "view",
      "type": "function"
    },
    {
      "constant": true,
      "inputs": [],
      "name": "havePermission",
      "outputs": [
        {
          "name": "",
          "type": "bool"
        }
      ],
      "payable": false,
      "stateMutability": "view",
      "type": "function"
    },
    {
      "constant": true,
      "inputs": [],
      "name": "createdAt",
      "outputs": [
        {
          "name": "",
          "type": "uint256"
        }
      ],
      "payable": false,
      "stateMutability": "view",
      "type": "function"
    },
    {
      "constant": true,
      "inputs": [],
      "name": "earned",
      "outputs": [
        {
          "name": "",
          "type": "uint256"
        }
      ],
      "payable": false,
      "stateMutability": "view",
      "type": "function"
    },
    {
      "constant": true,
      "inputs": [],
      "name": "alkemiNetwork",
      "outputs": [
        {
          "name": "",
          "type": "address"
        }
      ],
      "payable": false,
      "stateMutability": "view",
      "type": "function"
    },
    {
      "constant": true,
      "inputs": [],
      "name": "deposited",
      "outputs": [
        {
          "name": "",
          "type": "uint256"
        }
      ],
      "payable": false,
      "stateMutability": "view",
      "type": "function"
    },
    {
      "inputs": [
        {
          "name": "_link",
          "type": "address"
        },
        {
          "name": "_liquidityProvider",
          "type": "address"
        },
        {
          "name": "_alkemiNetwork",
          "type": "address"
        },
        {
          "name": "_beneficiary",
          "type": "address"
        },
        {
          "name": "_asset",
          "type": "address"
        },
        {
          "name": "_createdAt",
          "type": "uint256"
        },
        {
          "name": "_lockingPeriod",
          "type": "uint256"
        },
        {
          "name": "_lockingPrice",
          "type": "uint256"
        },
        {
          "name": "_lockingPricePosition",
          "type": "uint8"
        }
      ],
      "payable": false,
      "stateMutability": "nonpayable",
      "type": "constructor"
    },
    {
      "anonymous": false,
      "inputs": [
        {
          "indexed": true,
          "name": "token",
          "type": "address"
        },
        {
          "indexed": true,
          "name": "sender",
          "type": "address"
        },
        {
          "indexed": false,
          "name": "amount",
          "type": "uint256"
        }
      ],
      "name": "ReserveDeposit",
      "type": "event"
    },
    {
      "anonymous": false,
      "inputs": [
        {
          "indexed": true,
          "name": "token",
          "type": "address"
        },
        {
          "indexed": true,
          "name": "withdrawer",
          "type": "address"
        },
        {
          "indexed": false,
          "name": "amount",
          "type": "uint256"
        }
      ],
      "name": "ReserveWithdraw",
      "type": "event"
    },
    {
      "anonymous": false,
      "inputs": [
        {
          "indexed": true,
          "name": "token",
          "type": "address"
        },
        {
          "indexed": true,
          "name": "to",
          "type": "address"
        },
        {
          "indexed": false,
          "name": "amount",
          "type": "uint256"
        }
      ],
      "name": "ReserveApprove",
      "type": "event"
    },
    {
      "anonymous": false,
      "inputs": [
        {
          "indexed": true,
          "name": "token",
          "type": "address"
        },
        {
          "indexed": true,
          "name": "to",
          "type": "address"
        },
        {
          "indexed": false,
          "name": "amount",
          "type": "uint256"
        }
      ],
      "name": "ReserveTransfer",
      "type": "event"
    },
    {
      "anonymous": false,
      "inputs": [
        {
          "indexed": false,
          "name": "lockingPrice",
          "type": "uint256"
        },
        {
          "indexed": false,
          "name": "oraclePrice",
          "type": "uint256"
        },
        {
          "indexed": false,
          "name": "lockingPricePosition",
          "type": "uint256"
        }
      ],
      "name": "PriceUnlock",
      "type": "event"
    },
    {
      "anonymous": false,
      "inputs": [
        {
          "indexed": true,
          "name": "previousProvider",
          "type": "address"
        },
        {
          "indexed": true,
          "name": "newProvider",
          "type": "address"
        }
      ],
      "name": "LiquidityProviderChanged",
      "type": "event"
    },
    {
      "anonymous": false,
      "inputs": [
        {
          "indexed": true,
          "name": "previousContract",
          "type": "address"
        },
        {
          "indexed": true,
          "name": "newContract",
          "type": "address"
        }
      ],
      "name": "settlementContractChanged",
      "type": "event"
    },
    {
      "anonymous": false,
      "inputs": [
        {
          "indexed": true,
          "name": "id",
          "type": "bytes32"
        }
      ],
      "name": "ChainlinkRequested",
      "type": "event"
    },
    {
      "anonymous": false,
      "inputs": [
        {
          "indexed": true,
          "name": "id",
          "type": "bytes32"
        }
      ],
      "name": "ChainlinkFulfilled",
      "type": "event"
    },
    {
      "anonymous": false,
      "inputs": [
        {
          "indexed": true,
          "name": "id",
          "type": "bytes32"
        }
      ],
      "name": "ChainlinkCancelled",
      "type": "event"
    },
    {
      "constant": true,
      "inputs": [],
      "name": "isActive",
      "outputs": [
        {
          "name": "",
          "type": "bool"
        }
      ],
      "payable": false,
      "stateMutability": "view",
      "type": "function"
    },
    {
      "constant": true,
      "inputs": [
        {
          "name": "_token",
          "type": "address"
        }
      ],
      "name": "balance",
      "outputs": [
        {
          "name": "",
          "type": "uint256"
        }
      ],
      "payable": false,
      "stateMutability": "view",
      "type": "function"
    },
    {
      "constant": true,
      "inputs": [],
      "name": "isBeneficiary",
      "outputs": [
        {
          "name": "",
          "type": "bool"
        }
      ],
      "payable": false,
      "stateMutability": "view",
      "type": "function"
    },
    {
      "constant": true,
      "inputs": [],
      "name": "details",
      "outputs": [
        {
          "name": "",
          "type": "address"
        },
        {
          "name": "",
          "type": "uint256"
        },
        {
          "name": "",
          "type": "uint256"
        },
        {
          "name": "",
          "type": "uint256"
        },
        {
          "name": "",
          "type": "uint256"
        },
        {
          "name": "",
          "type": "uint256"
        },
        {
          "name": "",
          "type": "uint256"
        }
      ],
      "payable": false,
      "stateMutability": "view",
      "type": "function"
    },
    {
      "constant": true,
      "inputs": [],
      "name": "getChainlinkToken",
      "outputs": [
        {
          "name": "",
          "type": "address"
        }
      ],
      "payable": false,
      "stateMutability": "view",
      "type": "function"
    },
    {
      "constant": false,
      "inputs": [
        {
          "name": "_value",
          "type": "uint256"
        }
      ],
      "name": "deposit",
      "outputs": [],
      "payable": true,
      "stateMutability": "payable",
      "type": "function"
    },
    {
      "constant": false,
      "inputs": [
        {
          "name": "_value",
          "type": "uint256"
        },
        {
          "name": "_oracle",
          "type": "address"
        },
        {
          "name": "_jobId",
          "type": "bytes32"
        },
        {
          "name": "_sym",
          "type": "string"
        },
        {
          "name": "_market",
          "type": "string"
        },
        {
          "name": "_oraclePayment",
          "type": "uint256"
        }
      ],
      "name": "withdraw",
      "outputs": [],
      "payable": false,
      "stateMutability": "nonpayable",
      "type": "function"
    },
    {
      "constant": false,
      "inputs": [
        {
          "name": "_to",
          "type": "address"
        },
        {
          "name": "_value",
          "type": "uint256"
        }
      ],
      "name": "transferFromReserve",
      "outputs": [],
      "payable": false,
      "stateMutability": "nonpayable",
      "type": "function"
    },
    {
      "constant": false,
      "inputs": [
        {
          "name": "_value",
          "type": "uint256"
        }
      ],
      "name": "earn",
      "outputs": [],
      "payable": false,
      "stateMutability": "nonpayable",
      "type": "function"
    },
    {
      "constant": false,
      "inputs": [
        {
          "name": "_newPeriod",
          "type": "uint256"
        }
      ],
      "name": "extendLockingPeriod",
      "outputs": [],
      "payable": false,
      "stateMutability": "nonpayable",
      "type": "function"
    },
    {
      "constant": false,
      "inputs": [
        {
          "name": "_oracle",
          "type": "address"
        },
        {
          "name": "_jobId",
          "type": "bytes32"
        },
        {
          "name": "_sym",
          "type": "string"
        },
        {
          "name": "_market",
          "type": "string"
        },
        {
          "name": "_oraclePayment",
          "type": "uint256"
        }
      ],
      "name": "requestAssetPrice",
      "outputs": [],
      "payable": false,
      "stateMutability": "nonpayable",
      "type": "function"
    },
    {
      "constant": false,
      "inputs": [
        {
          "name": "_requestId",
          "type": "bytes32"
        },
        {
          "name": "_price",
          "type": "uint256"
        }
      ],
      "name": "fulfill",
      "outputs": [],
      "payable": false,
      "stateMutability": "nonpayable",
      "type": "function"
    },
    {
      "constant": false,
      "inputs": [],
      "name": "withdrawLink",
      "outputs": [],
      "payable": false,
      "stateMutability": "nonpayable",
      "type": "function"
    }
  ],
  "bytecode": "0x608060405260016004556013805461ff0019166101001790553480156200002557600080fd5b506040516101208062002a5d83398101806040526101208110156200004957600080fd5b508051602082015160408301516060840151608085015160a086015160c087015160e08801516101009098015196979596949593949293919290919086886001600160a01b0382161515620000ea576040517f08c379a0000000000000000000000000000000000000000000000000000000008152600401808060200182810382526041815260200180620029f56041913960600191505060405180910390fd5b6001600160a01b03811615156200014d576040517f08c379a0000000000000000000000000000000000000000000000000000000008152600401808060200182810382526039815260200180620029bc6039913960400191505060405180910390fd5b600680546001600160a01b038085166001600160a01b03199283161790925560078054848416921691909117908190556040519116906000907fdd02a698b84b4fb5f964b0fff14610c98b37374dca4ecccc6f323e825b11d38f908290a3505042831162000207576040517f08c379a00000000000000000000000000000000000000000000000000000000081526004018080602001828103825260328152602001806200298a6032913960400191505060405180910390fd5b81151562000261576040517f08c379a000000000000000000000000000000000000000000000000000000000815260040180806020018281038252602781526020018062002a366027913960400191505060405180910390fd5b6001600160a01b03891615156200028857620002826200034160201b60201c565b62000299565b6200029989620003d060201b60201c565b600880546001600160a01b038088166001600160a01b0319928316179092556009805492891692909116919091179055600a849055600b839055600c829055600060ff82166001811115620002ea57fe5b90506000816001811115620002fb57fe5b14156200030d576013805460ff191690555b60018160018111156200031c57fe5b141562000331576013805460ff191660011790555b50505050505050505050620003f2565b620003ce73c89bd4e1632d3a43cb03aaad5262cbe4038bc5716001600160a01b03166338cc48316040518163ffffffff1660e01b815260040160206040518083038186803b1580156200039357600080fd5b505afa158015620003a8573d6000803e3d6000fd5b505050506040513d6020811015620003bf57600080fd5b5051620003d0602090811b901c565b565b600280546001600160a01b0319166001600160a01b0392909216919091179055565b61258880620004026000396000f3fe6080604052600436106101d85760003560e01c806376fcfa6d11610102578063b745b94911610095578063e3d670d711610064578063e3d670d71461071f578063e65a011714610752578063ed74770f1461077c578063eef49ee314610791576101d8565b8063b745b94914610272578063cf09e0d0146105a8578063d6f19262146105bd578063d7ecdb1b146105d2576101d8565b8063a04e9e7c116100d1578063a04e9e7c1461052e578063a4efc58014610561578063ad7a672f14610576578063b6b55f251461058b576101d8565b806376fcfa6d146104da5780637b70209f146104ef5780638dc654a2146105045780639d1e4a0414610519576101d8565b80633ff7f9131161017a578063550066d511610149578063550066d514610432578063565974d3146104595780635b8bec55146104b0578063668aa824146104c5576101d8565b80633ff7f913146102dc5780634357855e1461030657806348a0c8dd1461033657806353eda0881461034b576101d8565b806334a48b7a116101b657806334a48b7a1461027257806337263e131461028757806338af3eed146102b257806338d52e0f146102c7576101d8565b80631498207e146101dd578063165d35e11461021857806322f3e2d414610249575b600080fd5b3480156101e957600080fd5b506102166004803603604081101561020057600080fd5b506001600160a01b0381351690602001356107a6565b005b34801561022457600080fd5b5061022d61094c565b604080516001600160a01b039092168252519081900360200190f35b34801561025557600080fd5b5061025e61095b565b604080519115158252519081900360200190f35b34801561027e57600080fd5b5061025e610978565b34801561029357600080fd5b5061029c610989565b6040805160ff9092168252519081900360200190f35b3480156102be57600080fd5b5061022d610992565b3480156102d357600080fd5b5061022d6109a1565b3480156102e857600080fd5b50610216600480360360208110156102ff57600080fd5b50356109b0565b34801561031257600080fd5b506102166004803603604081101561032957600080fd5b5080359060200135610a40565b34801561034257600080fd5b5061025e610bd8565b34801561035757600080fd5b50610216600480360360c081101561036e57600080fd5b8135916001600160a01b036020820135169160408201359190810190608081016060820135600160201b8111156103a457600080fd5b8201836020820111156103b657600080fd5b803590602001918460018302840111600160201b831117156103d757600080fd5b919390929091602081019035600160201b8111156103f457600080fd5b82018360208201111561040657600080fd5b803590602001918460018302840111600160201b8311171561042757600080fd5b919350915035610be6565b34801561043e57600080fd5b50610447610cdd565b60408051918252519081900360200190f35b34801561046557600080fd5b5061046e610ce3565b604080516001600160a01b0390981688526020880196909652868601949094526060860192909252608085015260a084015260c0830152519081900360e00190f35b3480156104bc57600080fd5b5061022d610d0d565b3480156104d157600080fd5b50610447610d1c565b3480156104e657600080fd5b50610447610d22565b3480156104fb57600080fd5b5061025e610d28565b34801561051057600080fd5b50610216610d38565b34801561052557600080fd5b5061025e610edd565b34801561053a57600080fd5b506102166004803603602081101561055157600080fd5b50356001600160a01b0316610eee565b34801561056d57600080fd5b50610447610f3f565b34801561058257600080fd5b50610447610f45565b610216600480360360208110156105a157600080fd5b5035610f4b565b3480156105b457600080fd5b50610447611035565b3480156105c957600080fd5b5061044761103b565b3480156105de57600080fd5b50610216600480360360a08110156105f557600080fd5b6001600160a01b0382351691602081013591810190606081016040820135600160201b81111561062457600080fd5b82018360208201111561063657600080fd5b803590602001918460018302840111600160201b8311171561065757600080fd5b91908080601f0160208091040260200160405190810160405280939291908181526020018383808284376000920191909152509295949360208101935035915050600160201b8111156106a957600080fd5b8201836020820111156106bb57600080fd5b803590602001918460018302840111600160201b831117156106dc57600080fd5b91908080601f0160208091040260200160405190810160405280939291908181526020018383808284376000920191909152509295505091359250611041915050565b34801561072b57600080fd5b506104476004803603602081101561074257600080fd5b50356001600160a01b03166112ab565b34801561075e57600080fd5b506102166004803603602081101561077557600080fd5b5035611342565b34801561078857600080fd5b5061022d6113ac565b34801561079d57600080fd5b506104476113bb565b6107ae610edd565b15156107ee57604051600160e51b62461bcd0281526004018080602001828103825260408152602001806123926040913960400191505060405180910390fd5b600b54421061083157604051600160e51b62461bcd0281526004018080602001828103825260248152602001806124b16024913960400191505060405180910390fd5b6008546001600160a01b031615156108c257303181111561088657604051600160e51b62461bcd0281526004018080602001828103825260268152602001806124086026913960400191505060405180910390fd5b6040516001600160a01b0383169082156108fc029083906000818181858888f193505050501580156108bc573d6000803e3d6000fd5b50610948565b60085460408051600160e01b63a9059cbb0281526001600160a01b038581166004830152602482018590529151919092169163a9059cbb9160448083019260209291908290030181600087803b15801561091b57600080fd5b505af115801561092f573d6000803e3d6000fd5b505050506040513d602081101561094557600080fd5b50505b5050565b60006109566113c1565b905090565b601354600090610100900460ff1680610956575050600d54151590565b6007546001600160a01b0316331490565b60135460ff1681565b6009546001600160a01b031681565b6008546001600160a01b031681565b6109b8610978565b15156109f857604051600160e51b62461bcd0281526004018080602001828103825260368152602001806123d26036913960400191505060405180910390fd5b600b548111610a3b57604051600160e51b62461bcd02815260040180806020018281038252602c815260200180612452602c913960400191505060405180910390fd5b600b55565b60008281526005602052604090205482906001600160a01b03163314610a9a57604051600160e51b62461bcd0281526004018080602001828103825260288152602001806124d56028913960400191505060405180910390fd5b60008181526005602052604080822080546001600160a01b03191690555182917f7cc135e0cebb02c3480ae5d74d377283180a2601f8f644edf7987b009316c63a91a260108290554260115560135460ff161515610b6e57600c5460105411610b6957600c5460105460135460408051938452602084019290925260ff1682820152517f049bfbfde0309d523311e3ae656abf430a3a28b5af57ba8771329b74fa4f97339181900360600190a1610b69610b52610d0d565b6008546012546001600160a01b03909116906113d0565b610bce565b600c5460105410610bce57600c5460105460135460408051938452602084019290925260ff1682820152517f049bfbfde0309d523311e3ae656abf430a3a28b5af57ba8771329b74fa4f97339181900360600190a1610bce610b52610d0d565b5050600060125550565b601354610100900460ff1681565b610bee610978565b1515610c2e57604051600160e51b62461bcd0281526004018080602001828103825260368152602001806123d26036913960400191505060405180910390fd5b600b54421115610c5557600854610c509033906001600160a01b03168a6113d0565b610cd3565b87601281905550610cd3878787878080601f01602080910402602001604051908101604052809392919081815260200183838082843760009201919091525050604080516020601f8b018190048102820181019092528981529250899150889081908401838280828437600092019190915250889250611041915050565b5050505050505050565b600b5481565b600854600a54600b54600c54600d54600e54600f546001600160a01b039096169590919293949596565b6007546001600160a01b031690565b60105481565b600c5481565b6009546001600160a01b03161590565b610d40610978565b1515610d8057604051600160e51b62461bcd0281526004018080602001828103825260368152602001806123d26036913960400191505060405180910390fd5b6000610d8a6113c1565b60408051600160e01b6370a0823102815230600482015290519192506001600160a01b0383169163a9059cbb91339184916370a082319160248083019260209291908290030181600087803b158015610de257600080fd5b505af1158015610df6573d6000803e3d6000fd5b505050506040513d6020811015610e0c57600080fd5b50516040805163ffffffff851660e01b81526001600160a01b03909316600484015260248301919091525160448083019260209291908290030181600087803b158015610e5857600080fd5b505af1158015610e6c573d6000803e3d6000fd5b505050506040513d6020811015610e8257600080fd5b50511515610eda5760408051600160e51b62461bcd02815260206004820152601260248201527f556e61626c6520746f207472616e736665720000000000000000000000000000604482015290519081900360640190fd5b50565b6006546001600160a01b0316331490565b610ef6610978565b1515610f3657604051600160e51b62461bcd02815260040180806020018281038252603b8152602001806122aa603b913960400191505060405180910390fd5b610eda81611543565b60115481565b600d5481565b610f53610978565b1515610f9357604051600160e51b62461bcd0281526004018080602001828103825260368152602001806123d26036913960400191505060405180910390fd5b801515610fd457604051600160e51b62461bcd0281526004018080602001828103825260368152602001806125276036913960400191505060405180910390fd5b601354610100900460ff16151561101f57604051600160e51b62461bcd02815260040180806020018281038252603381526020018061247e6033913960400191505060405180910390fd5b600854610eda906001600160a01b0316826115e9565b600a5481565b600f5481565b333014806110525750611052610978565b151561109257604051600160e51b62461bcd02815260040180806020018281038252603a81526020018061230b603a913960400191505060405180910390fd5b61109a61225a565b6110af8530600160e11b6321abc2af026116ff565b6040805180820190915260038152600160e81b6273796d0260208201529091506110e19082908663ffffffff61172a16565b6040805180820190915260078152600160ca1b6618dbdb9d995c9d0260208201526111149082908563ffffffff61172a16565b60408051600580825260c08201909252606091816020015b606081526020019060019003908161112c579050509050604051806040016040528060048152602001600160e01b63646174610281525081600081518110151561117257fe5b60209081029091010152805185908290600190811061118d57fe5b90602001906020020181905250604051806040016040528060058152602001600160d81b6471756f7465028152508160028151811015156111ca57fe5b6020908102909101015280518490829060039081106111e557fe5b90602001906020020181905250604051806040016040528060058152602001600160d81b6470726963650281525081600481518110151561122257fe5b90602001906020020181905250611267604051806040016040528060088152602001600160c31b670c6dee0f2a0c2e8d0281525082846117599092919063ffffffff16565b6040805180820190915260058152600160d81b6474696d65730260208201526112a0908390670de0b6b3a764000063ffffffff6117c916565b610cd38783856117f3565b60006001600160a01b03821615156112c55750303161133d565b60408051600160e01b6370a0823102815230600482015290516001600160a01b038416916370a08231916024808301926020929190829003018186803b15801561130e57600080fd5b505afa158015611322573d6000803e3d6000fd5b505050506040513d602081101561133857600080fd5b505190505b919050565b61134a610edd565b151561138a57604051600160e51b62461bcd0281526004018080602001828103825260408152602001806123926040913960400191505060405180910390fd5b611396600f54826119cf565b600f55600d546113a690826119cf565b600d5550565b6006546001600160a01b031690565b600e5481565b6002546001600160a01b031690565b6001600160a01b038216151561145f57303181111561142357604051600160e51b62461bcd0281526004018080602001828103825260268152602001806124086026913960400191505060405180910390fd5b6040516001600160a01b0384169082156108fc029083906000818181858888f19350505050158015611459573d6000803e3d6000fd5b506114ec565b816001600160a01b031663a9059cbb84836040518363ffffffff1660e01b815260040180836001600160a01b03166001600160a01b0316815260200182815260200192505050602060405180830381600087803b1580156114bf57600080fd5b505af11580156114d3573d6000803e3d6000fd5b505050506040513d60208110156114e957600080fd5b50505b6114f8600d5482611a35565b600d556040805182815290516001600160a01b0380861692908516917f6a59b575a9d99916495f3a7e121eb0ecd2ae0f0ae7fb5a76cb3e35d583f0ed589181900360200190a3505050565b6001600160a01b038116151561158d57604051600160e51b62461bcd0281526004018080602001828103825260268152602001806122e56026913960400191505060405180910390fd5b6007546040516001600160a01b038084169216907fdd02a698b84b4fb5f964b0fff14610c98b37374dca4ecccc6f323e825b11d38f90600090a3600780546001600160a01b0319166001600160a01b0392909216919091179055565b80151561162a57604051600160e51b62461bcd02815260040180806020018281038252602a815260200180612345602a913960400191505060405180910390fd5b6001600160a01b03821615156116805734811461167b57604051600160e51b62461bcd02815260040180806020018281038252602481526020018061242e6024913960400191505060405180910390fd5b61169b565b61169b6001600160a01b03831633308463ffffffff611a7716565b6013805461ff0019169055600e546116b390826119cf565b600e819055600d5560408051828152905133916001600160a01b038516917fed6213b478c3e842d868cfacb97c58fc59b0c882ce4794854dfd1edc60c6f6e99181900360200190a35050565b61170761225a565b61170f61225a565b6117218186868663ffffffff611ad416565b95945050505050565b608083015161173f908363ffffffff611b1116565b6080830151611754908263ffffffff611b1116565b505050565b608083015161176e908363ffffffff611b1116565b61177b8360800151611b2e565b60005b81518110156117bb576117b3828281518110151561179857fe5b6020908102909101015160808601519063ffffffff611b1116565b60010161177e565b506117548360800151611b39565b60808301516117de908363ffffffff611b1116565b6080830151611754908263ffffffff611b4416565b6004546040805130606090811b60208084019190915260348084018690528451808503909101815260549093018452825192810192909220908601939093526000838152600590915281812080546001600160a01b0319166001600160a01b038816179055905182917fb5e6e01e79f91267dc17b4e6314d5d4d03593d2ceee0fbb452b750bd70ea5af991a26002546001600160a01b0316634000aea0858461189b87611b6d565b6040518463ffffffff1660e01b815260040180846001600160a01b03166001600160a01b0316815260200183815260200180602001828103825283818151815260200191508051906020019080838360005b838110156119055781810151838201526020016118ed565b50505050905090810190601f1680156119325780820380516001836020036101000a031916815260200191505b50945050505050602060405180830381600087803b15801561195357600080fd5b505af1158015611967573d6000803e3d6000fd5b505050506040513d602081101561197d57600080fd5b505115156119bf57604051600160e51b62461bcd02815260040180806020018281038252602381526020018061236f6023913960400191505060405180910390fd5b6004805460010190559392505050565b600082820183811015611a2c5760408051600160e51b62461bcd02815260206004820152601b60248201527f536166654d6174683a206164646974696f6e206f766572666c6f770000000000604482015290519081900360640190fd5b90505b92915050565b6000611a2c83836040518060400160405280601e81526020017f536166654d6174683a207375627472616374696f6e206f766572666c6f770000815250611c99565b604080516001600160a01b0385811660248301528416604482015260648082018490528251808303909101815260849091019091526020810180516001600160e01b0316600160e01b6323b872dd02179052610945908590611d33565b611adc61225a565b611aec8560800151610100611efa565b50509183526001600160a01b031660208301526001600160e01b031916604082015290565b611b1e8260038351611f34565b611754828263ffffffff61203716565b610eda816004612051565b610eda816007612051565b60008112611b5d57611b5882600083611f34565b610948565b6109488260018360001903611f34565b8051602080830151604080850151606086810151608088015151935160006024820181815260448301829052606483018a90526001600160a01b03881660848401526001600160e01b0319861660a484015260c48301849052600160e48401819052610100610104850190815288516101248601528851969b600160e11b6320214ca3029b949a8b9a91999098909796939591949361014401918501908083838e5b83811015611c27578181015183820152602001611c0f565b50505050905090810190601f168015611c545780820380516001836020036101000a031916815260200191505b5060408051601f198184030181529190526020810180516001600160e01b03166001600160e01b0319909d169c909c17909b5250989950505050505050505050919050565b60008184841115611d2b57604051600160e51b62461bcd0281526004018080602001828103825283818151815260200191508051906020019080838360005b83811015611cf0578181015183820152602001611cd8565b50505050905090810190601f168015611d1d5780820380516001836020036101000a031916815260200191505b509250505060405180910390fd5b505050900390565b611d45826001600160a01b031661206a565b1515611d9b5760408051600160e51b62461bcd02815260206004820152601f60248201527f5361666545524332303a2063616c6c20746f206e6f6e2d636f6e747261637400604482015290519081900360640190fd5b60006060836001600160a01b0316836040518082805190602001908083835b60208310611dd95780518252601f199092019160209182019101611dba565b6001836020036101000a0380198251168184511680821785525050505050509050019150506000604051808303816000865af19150503d8060008114611e3b576040519150601f19603f3d011682016040523d82523d6000602084013e611e40565b606091505b5091509150811515611e9c5760408051600160e51b62461bcd02815260206004820181905260248201527f5361666545524332303a206c6f772d6c6576656c2063616c6c206661696c6564604482015290519081900360640190fd5b80511561094557808060200190516020811015611eb857600080fd5b5051151561094557604051600160e51b62461bcd02815260040180806020018281038252602a8152602001806124fd602a913960400191505060405180910390fd5b611f0261228f565b6020820615611f175760208206602003820191505b506020828101829052604080518085526000815290920101905290565b60178111611f5c57611f568360ff80851660051b16831763ffffffff6120a616565b50611754565b60ff8111611f9057611f7d83601860ff851660051b1763ffffffff6120a616565b50611f568382600163ffffffff6120be16565b61ffff8111611fc557611fb283601960ff851660051b1763ffffffff6120a616565b50611f568382600263ffffffff6120be16565b63ffffffff8111611ffc57611fe983601a60ff851660051b1763ffffffff6120a616565b50611f568382600463ffffffff6120be16565b67ffffffffffffffff81116117545761202483601b60ff851660051b1763ffffffff6120a616565b506109458382600863ffffffff6120be16565b61203f61228f565b611a2c838460000151518485516120d7565b61175482601f60ff841660051b1763ffffffff6120a616565b6000813f7fc5d2460186f7233c927e7db2dcc703c0e500b653ca82273b7bfad8045d85a470811580159061209e5750808214155b949350505050565b6120ae61228f565b611a2c8384600001515184612183565b6120c661228f565b61209e8485600001515185856121ce565b6120df61228f565b82518211156120ed57600080fd5b84602001518285011115612117576121178561210f876020015187860161222c565b600202612243565b6000808651805187602083010193508088870111156121365787860182525b505050602084015b6020841061215d5780518252601f19909301926020918201910161213e565b51815160001960208690036101000a019081169019919091161790525083949350505050565b61218b61228f565b602084015183106121a7576121a7848560200151600202612243565b83518051602085830101848153818614156121c3576001820183525b509495945050505050565b6121d661228f565b846020015184830111156121f3576121f385858401600202612243565b60006001836101000a03905085518386820101858319825116178152815185880111156122205784870182525b50959695505050505050565b60008183111561223d575081611a2f565b50919050565b815161224f8383611efa565b506109458382612037565b6040805160c08101825260008082526020820181905291810182905260608101919091526080810161228a61228f565b905290565b60405180604001604052806060815260200160008152509056fe4c69717569646974795265736572766553746174653a2063616c6c6572206973206e6f7420746865206c69717569646974792070726f76696465724f776e61626c653a206e6577206f776e657220697320746865207a65726f20616464726573734c6971756964697479526573657276653a206e6f7420617574686f72697a656420746f2063616c6c2070726963652066656564206f7261636c654c6971756964697479526573657276653a2063616e206e6f74206465706f736974203020616d6f756e74756e61626c6520746f207472616e73666572416e6443616c6c20746f206f7261636c654c69717569646974795265736572766553746174653a2063616c6c6572206973206e6f742074686520416c6b656d69204e6574776f726b20636f6e74726163744c69717569646974795265736572766553746174653a2063616c6c657220646f6573206e6f742068617665207065726d697373696f6e4c6971756964697479526573657276653a20696e73756666696369656e742062616c616e63654c6971756964697479526573657276653a204554482076616c7565206d69736d617463684c6971756964697479526573657276653a20696e76616c6964206e6577206c6f636b696e6720706572696f644c6971756964697479526573657276653a2063616e206e6f74206465706f73697420696e746f207468697320726573657276654c6971756964697479526573657276653a2066756e64732061726520756e6c6f636b6564536f75726365206d75737420626520746865206f7261636c65206f662074686520726571756573745361666545524332303a204552433230206f7065726174696f6e20646964206e6f7420737563636565644c6971756964697479526573657276653a2063616e206e6f74206465706f73697420616d6f756e7420657175616c20746f207a65726fa165627a7a72305820cb7f77a6270b7eba8bc7c1d417117472522de79e79c8aa2a7306f5b3fbb91bd400294c6971756964697479526573657276653a20696e76616c6964206c6f636b696e6720706572696f642074696d657374616d704c69717569646974795265736572766553746174653a20696e76616c6964206c69717569646974792070726f766964657220616464726573734c69717569646974795265736572766553746174653a20696e76616c6964206c6971756964697479206d616e6167657220636f6e747261637420616464726573734c6971756964697479526573657276653a20696e76616c6964207072696365206c6f636b6f7574",
  "source": "pragma solidity ^0.5.0;\n\nimport \"@openzeppelin/contracts/token/ERC20/ERC20.sol\";\nimport \"@openzeppelin/contracts/token/ERC20/SafeERC20.sol\";\nimport \"@openzeppelin/contracts/math/SafeMath.sol\";\nimport \"chainlinkv0.5/contracts/ChainlinkClient.sol\";\nimport \"./LiquidityReserveState.sol\";\n\n/**\n  * @title LiquidityReserve\n  * @notice Base layer functionality for the Liquidity Reserve\n  */\ncontract LiquidityReserve is ChainlinkClient, LiquidityReserveState {\n    using SafeERC20 for ERC20;\n    using SafeMath for uint256;\n\n    address internal constant ETH = address(0);\n\n    address public asset;\n    address public beneficiary;\n    uint256 public createdAt;\n    uint256 public lockingPeriod;\n    uint256 public lockingPrice;\n    uint256 public totalBalance;\n    uint256 public deposited;\n    uint256 public earned;\n    uint256 public oraclePrice;\n    uint256 public lastPriceCheck;\n    uint256 internal _amountToWithdraw;\n    uint8 public lockingPricePosition; // 0=below the lockingPrice; 1=above the lockingPrice\n    bool public isDepositable = true;\n\n    /**\n     * @notice Price lockout actions\n     */\n    enum PriceLockout {BELOW, ABOVE}\n\n    event ReserveDeposit(\n        address indexed token,\n        address indexed sender,\n        uint256 amount\n    );\n    event ReserveWithdraw(\n        address indexed token,\n        address indexed withdrawer,\n        uint256 amount\n    );\n    event ReserveApprove(\n        address indexed token,\n        address indexed to,\n        uint256 amount\n    );\n    event ReserveTransfer(\n        address indexed token,\n        address indexed to,\n        uint256 amount\n    );\n    event PriceUnlock(\n        uint256 lockingPrice,\n        uint256 oraclePrice,\n        uint256 lockingPricePosition\n    );\n\n    /**\n     * @notice constructor\n     * @param _link LINK token address\n     * @param _liquidityProvider liquidity provider address\n     * @param _alkemiNetwork Alkemi Network contract address\n     * @param _beneficiary earnings beneficiary (address(0) if the earnings goes to the current reserve address)\n     * @param _asset reserve asset\n     * @param _createdAt reserve created time\n     * @param _lockingPeriod funds locking period\n     * @param _lockingPrice release funds when hitting this price\n     * @param _lockingPricePosition locking price position\n     */\n    constructor(\n        address _link,\n        address _liquidityProvider,\n        address _alkemiNetwork,\n        address _beneficiary,\n        address _asset,\n        uint256 _createdAt,\n        uint256 _lockingPeriod,\n        uint256 _lockingPrice,\n        uint8 _lockingPricePosition\n    ) public LiquidityReserveState(_alkemiNetwork, _liquidityProvider) {\n        require(\n            _lockingPeriod > now,\n            \"LiquidityReserve: invalid locking period timestamp\"\n        );\n        require(_lockingPrice > 0, \"LiquidityReserve: invalid price lockout\");\n\n        // Set the address for the LINK token for the network.\n        if (_link == address(0)) {\n            // Useful for deploying to public networks.\n            setPublicChainlinkToken();\n        } else {\n            // Useful if you're deploying to a local network.\n            setChainlinkToken(_link);\n        }\n\n        asset = _asset;\n        beneficiary = _beneficiary;\n        createdAt = _createdAt;\n        lockingPeriod = _lockingPeriod;\n        lockingPrice = _lockingPrice;\n\n        // if _lockingPricePosition=0 (PriceLockout.BELOW) then unlock funds when oracle price is below lockingPrice\n        // if _lockingPricePosition=1 (PriceLockout.ABOVE) then unlock funds when oracle price is above lockingPrice\n        PriceLockout priceLockout = PriceLockout(_lockingPricePosition);\n        if (priceLockout == PriceLockout.BELOW) {\n            lockingPricePosition = 0;\n        }\n        if (priceLockout == PriceLockout.ABOVE) {\n            lockingPricePosition = 1;\n        }\n    }\n\n    /**\n     * @notice check if reserve is active\n     */\n    function isActive() external view returns (bool) {\n        return isDepositable || totalBalance > 0;\n    }\n\n    /**\n     * @notice Get liquidity reserve of a specific token\n     * @param _token token address\n     * @return liquidity reserve token balance\n     */\n    function balance(address _token) public view returns (uint256) {\n        if (_token == ETH) {\n            return address(this).balance;\n        } else {\n            return ERC20(_token).balanceOf(address(this));\n        }\n    }\n\n    /**\n     * @notice Returns true if the beneficiary is the current reserve.\n     */\n    function isBeneficiary() public view returns (bool) {\n        return beneficiary == address(0);\n    }\n\n    /**\n     * @notice Get reserve details\n     * @return asset address, locking period, locking price, total balance, deposited amount, earned amount\n     */\n    function details()\n        public\n        view\n        returns (address, uint256, uint256, uint256, uint256, uint256, uint256)\n    {\n        return (\n            asset,\n            createdAt,\n            lockingPeriod,\n            lockingPrice,\n            totalBalance,\n            deposited,\n            earned\n        );\n    }\n\n    /**\n     * @notice Returns the address of the LINK token\n     * @dev This is the public implementation for chainlinkTokenAddress, which is\n     * an internal method of the ChainlinkClient contract\n     */\n    function getChainlinkToken() public view returns (address) {\n        return chainlinkTokenAddress();\n    }\n\n    /**\n     * @notice Deposit `_value` to the reserve\n     * @dev this function can only be called by the liquidity provider or by the settlement contract\n     * @param _value Amount of tokens being transferred\n     */\n    function deposit(uint256 _value) external payable onlyPermissioned {\n        require(\n            _value > 0,\n            \"LiquidityReserve: can not deposit amount equal to zero\"\n        );\n        require(\n            isDepositable,\n            \"LiquidityReserve: can not deposit into this reserve\"\n        );\n        _deposit(asset, _value);\n    }\n\n    /**\n     * @notice Withdraw `_value` from the reserve\n     * @dev this function can only be called by the liquidity provider\n     * @param _value Amount of tokens being transferred\n     * @param _oracle oracle address\n     * @param _jobId oracle job id\n     * @param _sym asset symbol\n     * @param _market market currency needed\n     * @param _oraclePayment amount of Link tokens for node\n     */\n    function withdraw(\n        uint256 _value,\n        address _oracle,\n        bytes32 _jobId,\n        string calldata _sym,\n        string calldata _market,\n        uint256 _oraclePayment\n    ) external onlyPermissioned {\n        if (now > lockingPeriod) {\n            _withdraw(msg.sender, asset, _value);\n        } else {\n            _amountToWithdraw = _value;\n            requestAssetPrice(_oracle, _jobId, _sym, _market, _oraclePayment);\n        }\n    }\n\n    /**\n     * @notice Transfer asset from reserve to a specific address\n     * @dev can only be called from the Alkemi Network contract when asset is locked\n     * @param _to recepient address\n     * @param _value value to send\n     */\n    function transferFromReserve(address payable _to, uint256 _value)\n        external\n        onlyAlkemi()\n    {\n        require(now < lockingPeriod, \"LiquidityReserve: funds are unlocked\");\n\n        if (asset == ETH) {\n            require(\n                address(this).balance >= _value,\n                \"LiquidityReserve: insufficient balance\"\n            );\n            _to.transfer(_value);\n        } else {\n            ERC20(asset).transfer(_to, _value);\n        }\n    }\n\n    /**\n     * @notice increment reserve earning\n     * @dev can only be called from Alkemi Network contract\n     */\n    function earn(uint256 _value) external onlyAlkemi() {\n        earned = SafeMath.add(earned, _value);\n        totalBalance = SafeMath.add(totalBalance, _value);\n    }\n\n    /**\n     * @notice extend reserve locking period\n     */\n    function extendLockingPeriod(uint256 _newPeriod) external onlyPermissioned {\n        require(\n            _newPeriod > lockingPeriod,\n            \"LiquidityReserve: invalid new locking period\"\n        );\n\n        lockingPeriod = _newPeriod;\n    }\n\n    /**\n     * @notice send request to Chainlink nodes to get asset price\n     * @param _oracle oracle address\n     * @param _jobId oracle job id\n     * @param _sym asset symbol\n     * @param _market market currency needed\n     * @param _oraclePayment amount of Link tokens for node\n     */\n    function requestAssetPrice(\n        address _oracle,\n        bytes32 _jobId,\n        string memory _sym,\n        string memory _market,\n        uint256 _oraclePayment\n    ) public {\n        require(\n            (msg.sender == address(this)) || havePermission(),\n            \"LiquidityReserve: not authorized to call price feed oracle\"\n        );\n\n        Chainlink.Request memory req = buildChainlinkRequest(\n            _jobId,\n            address(this),\n            this.fulfill.selector\n        );\n        req.add(\"sym\", _sym);\n        req.add(\"convert\", _market);\n        string[] memory path = new string[](5);\n        path[0] = \"data\";\n        path[1] = _sym;\n        path[2] = \"quote\";\n        path[3] = _market;\n        path[4] = \"price\";\n        req.addStringArray(\"copyPath\", path);\n        req.addInt(\"times\", 10**18);\n        sendChainlinkRequestTo(_oracle, req, _oraclePayment);\n    }\n\n    /**\n     * @notice update asset price and process withdraw\n     * @dev can only be called by Chainlink oracles when request get fulfilled\n     * @param _requestId chainlink request id\n     * @param _price returned price\n     */\n    function fulfill(bytes32 _requestId, uint256 _price)\n        public\n        recordChainlinkFulfillment(_requestId)\n    {\n        oraclePrice = _price;\n        lastPriceCheck = now;\n\n        if (lockingPricePosition == 0) {\n            if (oraclePrice <= lockingPrice) {\n                emit PriceUnlock(\n                    lockingPrice,\n                    oraclePrice,\n                    lockingPricePosition\n                );\n\n                _withdraw(\n                    address(uint160(liquidityProvider())),\n                    asset,\n                    _amountToWithdraw\n                );\n            }\n        } else {\n            if (oraclePrice >= lockingPrice) {\n                emit PriceUnlock(\n                    lockingPrice,\n                    oraclePrice,\n                    lockingPricePosition\n                );\n\n                _withdraw(\n                    address(uint160(liquidityProvider())),\n                    asset,\n                    _amountToWithdraw\n                );\n            }\n        }\n\n        _amountToWithdraw = 0;\n    }\n\n    /**\n     * @notice Allows the owner to withdraw any LINK balance on the contract\n     */\n    function withdrawLink() public onlyPermissioned {\n        LinkTokenInterface link = LinkTokenInterface(chainlinkTokenAddress());\n        require(\n            link.transfer(msg.sender, link.balanceOf(address(this))),\n            \"Unable to transfer\"\n        );\n    }\n\n    function _deposit(address _token, uint256 _value) internal {\n        require(_value > 0, \"LiquidityReserve: can not deposit 0 amount\");\n\n        if (_token == ETH) {\n            // Deposit is implicit in this case\n            require(\n                msg.value == _value,\n                \"LiquidityReserve: ETH value mismatch\"\n            );\n        } else {\n            ERC20(_token).safeTransferFrom(msg.sender, address(this), _value);\n        }\n\n        isDepositable = false;\n        deposited = SafeMath.add(deposited, _value);\n        totalBalance = deposited;\n\n        emit ReserveDeposit(_token, msg.sender, _value);\n    }\n\n    function _withdraw(\n        address payable _recepient,\n        address _token,\n        uint256 _value\n    ) internal {\n        if (_token == ETH) {\n            require(\n                address(this).balance >= _value,\n                \"LiquidityReserve: insufficient balance\"\n            );\n            _recepient.transfer(_value);\n        } else {\n            ERC20(_token).transfer(_recepient, _value);\n        }\n\n        totalBalance = SafeMath.sub(totalBalance, _value);\n\n        emit ReserveWithdraw(_token, _recepient, _value);\n    }\n}\n",
  "sourcePath": "/Users/haythem96/Projects/Alkemi/alkemi-protocol/contracts/liquidity-reserve/LiquidityReserve.sol",
  "compiler": {
    "name": "solc",
    "version": "0.5.5+commit.47a71e8f.Emscripten.clang"
  },
  "schemaVersion": "3.0.21",
  "updatedAt": "2020-01-29T10:52:28.109Z",
  "devdoc": {
    "methods": {
      "alkemiNetwork()": {
        "details": "Returns the address of the Alkemi Network contract address."
      },
      "balance(address)": {
        "params": {
          "_token": "token address"
        },
        "return": "liquidity reserve token balance"
      },
      "constructor": {
        "params": {
          "_alkemiNetwork": "Alkemi Network contract address",
          "_asset": "reserve asset",
          "_beneficiary": "earnings beneficiary (address(0) if the earnings goes to the current reserve address)",
          "_createdAt": "reserve created time",
          "_link": "LINK token address",
          "_liquidityProvider": "liquidity provider address",
          "_lockingPeriod": "funds locking period",
          "_lockingPrice": "release funds when hitting this price",
          "_lockingPricePosition": "locking price position"
        }
      },
      "deposit(uint256)": {
        "details": "this function can only be called by the liquidity provider or by the settlement contract",
        "params": {
          "_value": "Amount of tokens being transferred"
        }
      },
      "details()": {
        "return": "asset address, locking period, locking price, total balance, deposited amount, earned amount"
      },
      "earn(uint256)": {
        "details": "can only be called from Alkemi Network contract"
      },
      "fulfill(bytes32,uint256)": {
        "details": "can only be called by Chainlink oracles when request get fulfilled",
        "params": {
          "_price": "returned price",
          "_requestId": "chainlink request id"
        }
      },
      "getChainlinkToken()": {
        "details": "This is the public implementation for chainlinkTokenAddress, which is an internal method of the ChainlinkClient contract"
      },
      "havePermission()": {
        "details": "Returns true if the caller is the current liquidity provider"
      },
      "isAlkemiNetwork()": {
        "details": "Returns true if the caller is Alkemi Network contract."
      },
      "isLiquidityprovider()": {
        "details": "Returns true if the caller is the current liquidity provider."
      },
      "liquidityProvider()": {
        "details": "Returns the address of the current liquidity provider."
      },
      "requestAssetPrice(address,bytes32,string,string,uint256)": {
        "params": {
          "_jobId": "oracle job id",
          "_market": "market currency needed",
          "_oracle": "oracle address",
          "_oraclePayment": "amount of Link tokens for node",
          "_sym": "asset symbol"
        }
      },
      "transferFromReserve(address,uint256)": {
        "details": "can only be called from the Alkemi Network contract when asset is locked",
        "params": {
          "_to": "recepient address",
          "_value": "value to send"
        }
      },
      "transferLiquidityProvider(address)": {
        "details": "Transfers ownership of the contract to a new account (`newLiquidityprovider`). Can only be called by the current liquidity provider."
      },
      "withdraw(uint256,address,bytes32,string,string,uint256)": {
        "details": "this function can only be called by the liquidity provider",
        "params": {
          "_jobId": "oracle job id",
          "_market": "market currency needed",
          "_oracle": "oracle address",
          "_oraclePayment": "amount of Link tokens for node",
          "_sym": "asset symbol",
          "_value": "Amount of tokens being transferred"
        }
      }
    },
    "title": "LiquidityReserve"
  },
  "userdoc": {
    "methods": {
      "balance(address)": {
        "notice": "Get liquidity reserve of a specific token"
      },
      "constructor": "constructor",
      "deposit(uint256)": {
        "notice": "Deposit `_value` to the reserve"
      },
      "details()": {
        "notice": "Get reserve details"
      },
      "earn(uint256)": {
        "notice": "increment reserve earning"
      },
      "extendLockingPeriod(uint256)": {
        "notice": "extend reserve locking period"
      },
      "fulfill(bytes32,uint256)": {
        "notice": "update asset price and process withdraw"
      },
      "getChainlinkToken()": {
        "notice": "Returns the address of the LINK token"
      },
      "isActive()": {
        "notice": "check if reserve is active"
      },
      "isBeneficiary()": {
        "notice": "Returns true if the beneficiary is the current reserve."
      },
      "requestAssetPrice(address,bytes32,string,string,uint256)": {
        "notice": "send request to Chainlink nodes to get asset price"
      },
      "transferFromReserve(address,uint256)": {
        "notice": "Transfer asset from reserve to a specific address"
      },
      "withdraw(uint256,address,bytes32,string,string,uint256)": {
        "notice": "Withdraw `_value` from the reserve"
      },
      "withdrawLink()": {
        "notice": "Allows the owner to withdraw any LINK balance on the contract"
      }
    },
    "notice": "Base layer functionality for the Liquidity Reserve"
  }
}